:0600000002EF37F01200D0
:08000800086ED8CF09F0E0CF2B
:100010000AF00001E9CF10F0EACF0BF0E1CF0CF0CD
:10002000E2CF0DF0D9CF0EF0DACF0FF0F3CF16F00C
:10003000F4CF17F0FACF18F0F5CF19F0F6CF1AF089
:10004000F7CF1BF000C012F001C013F002C014F093
:1000500003C015F0F2AA30EF00F0F2B457EF00F051
:1000600012C000F013C001F014C002F015C003F07C
:1000700010C0E9FF0BC0EAFF0B8E0CC0E1FF0DC002
:10008000E2FF0EC0D9FF0FC0DAFF16C0F3FF17C0A2
:10009000F4FF18C0FAFF19C0F5FF1AC0F6FF1BC025
:1000A000F7FF08500AC0E0FF09C0D8FF1000522A2D
:1000B000D8B4532A552A5550090802E2542A556AE1
:1000C000850ED76EED0ED66EF29430EF00F03C4800
:1000D000544D4C3E3C424F44593E3C48313E3430F6
:1000E00034204572726F723C2F48313E3C48523E7C
:1000F0003C503E46696C65204E6F7420666F756E8D
:10010000642E3C2F424F44593E3C2F48544D4C3EA8
:1001100000003C48544D4C3E3C424F44593E3C4804
:10012000313E353030204572726F723C2F48313E7F
:100130003C48523E3C503E496E7465726E616C2084
:10014000536572766572204572726F723C2F424F12
:1001500044593E3C2F48544D4C3E000048545450A6
:100160002F312E3020254C5520004E6F7420666FA5
:10017000756E6400536572766572204572726F7297
:1001800000000D0A436F6E74656E742D54797065AE
:100190003A200000746578742F68746D6C000D0A45
:1001A0000D0A0000200A3C48544D4C3E3C424F444E
:1001B00059204247434F4C4F523D23464646464600
:1001C0004620544558543D233030303030303E20A6
:1001D0000A200A3C63656E7465723E3C48313E42BB
:1001E000656570436F6E74726F6C203C2F48313EB2
:1001F0003C2F63656E7465723E200A3C42523E3C61
:1002000063656E7465723E3C48323E446173686259
:100210006F6172643C2F48323E3C2F43454E54453B
:10022000523E200A200A200A3C464F524D204D459E
:1002300054484F443D4745543E200A3C503E4C43B1
:10024000443A203C494E50555420545950453D2283
:100250007465787422204E414D453D226C636422C2
:100260002073697A653D3230206D61786C656E6708
:1002700074683D31363E200A3C696E707574207496
:100280007970653D227375626D6974222076616CA8
:1002900075653D22456E7669617220746578746F6C
:1002A000223E200A3C2F464F524D3E200A200A3C57
:1002B000464F524D204D4554484F443D4745543ECE
:1002C000200A3C696E70757420747970653D2273E4
:1002D00075626D697422206E616D653D22434D31FA
:1002E000222076616C75653D2241223E200A3C69E0
:1002F0006E70757420747970653D227375626D69D6
:100300007422206E616D653D22434D31222076615D
:100310006C75653D2243223E200A3C696E707574FF
:1003200020747970653D227375626D697422206E48
:10033000616D653D22434D31222076616C75653DCE
:10034000225A223E200A3C2F464F524D3E200A3C64
:10035000464F524D204D4554484F443D4745543E2D
:10036000200A3C696E70757420747970653D227343
:1003700075626D697422206E616D653D22434D3258
:10038000222076616C75653D2241223E200A3C693F
:100390006E70757420747970653D227375626D6935
:1003A0007422206E616D653D22434D3222207661BC
:1003B0006C75653D2243223E200A3C696E7075745F
:1003C00020747970653D227375626D697422206EA8
:1003D000616D653D22434D32222076616C75653D2D
:1003E000225A223E200A3C2F464F524D3E200A3CC4
:1003F000464F524D204D4554484F443D4745543E8D
:10040000200A3C696E70757420747970653D2273A2
:1004100075626D697422206E616D653D22434D33B6
:10042000222076616C75653D2241223E200A3C699E
:100430006E70757420747970653D227375626D6994
:100440007422206E616D653D22434D33222076611A
:100450006C75653D2243223E200A3C696E707574BE
:1004600020747970653D227375626D697422206E07
:10047000616D653D22434D33222076616C75653D8B
:10048000225A223E200A3C2F464F524D3E200A3C23
:100490002F424F44593E3C2F48544D4C3E200A00B9
:1004A000430041005A0000000C556E697665727376
:1004B000696461642041504543004C61626F726120
:1004C000746F72696F3A202575004C61626F7261BA
:1004D000746F72696F3A202575004C61626F7261AA
:1004E000746F72696F3A202575004C61626F72619A
:1004F000746F72696F3A20257500030EEA6E2D0E37
:10050000E96EEF500DE0060E016E006A002EFED778
:10051000012EFBD77B0E006E002EFED7EF2EF3D7F9
:10052000120003012E39F00B006E0F0E8C14001018
:100530008C6E00008C80030E006E002EFED78C9017
:10054000000112008350006E00380F0B016E120084
:100550000F0E9514F009956E8C8400008C800000BD
:10056000F1DF01C02EF38C9000008C8000D000D011
:100570000000E8DF01C02DF38C900F0E9514956EEE
:1005800003012E39006EF00E001600502D11016E81
:100590000001D0EF02F09590959295948C92D8D767
:1005A00001C02DF3030101AE02D00001F8D78C92F7
:1005B0002BB18C8200008C9400008C902C392D6F14
:1005C0000F0E2D172DC32EF30001ABDF03012C51AD
:1005D0000F0B2D6F2E6F0001A4DF1200280E0201F9
:1005E000F56F0C0EF66F010EF76F060EF86F8C901C
:1005F0008C928C940F0E9514956E9590959295947F
:100600000F0E03012D6F000178DF010E0201F46F60
:10061000F45103080DE3030E03012E6F000181DF87
:10062000050E03012D6F000168DF0201F42BF0D7E6
:10063000020E03012E6F000174DF050E03012D6F02
:1006400000015BDF0201F46BF451030810E3036A5D
:10065000F451F50FE96E020E0320EA6EEFCF2CF392
:1006600003012B6B000197DF0201F42BEDD7000192
:1006700085EF37F00301282D01D003D0400E296FFC
:1006800001D0296B010E275D2927295180092A6F86
:100690002B6B2C6F00017FDF120003012651070A2C
:1006A000000107E00B0A0CE0060A16E0020A1CE053
:1006B00022D0010E0301276F286F0001DBDF22D05B
:1006C00003012B6B010E2C6F000165DF020E03018D
:1006D0002D6F000112DF16D0010E0301276F020EED
:1006E000286F0001C7DF0ED003012B6B100E2C6F9B
:1006F000000151DF07D0010E03012B6F26C32CF33D
:10070000000149DF12000900F5520CE0F6CFF4F2C7
:10071000F7CFF5F2F5CF26F3C0DFF4C2F6FFF5C24E
:10072000F7FFF1D78BEF37F00900F6CFF5F2F7CFEF
:10073000F6F2F5CF26F3B1DFF5C2F6FFF6C2F7FF0A
:100740000201F42F01D002D00001EED70001120007
:1007500003013E51016A3D5D03E23DC300F00CD050
:10076000006A080E3F6F3D3700363E51005CD8B03E
:10077000006E01363F2FF7D7000112000150F4C27E
:100780003DF3640E03013E6F0001E2DF00C0F4F2AE
:100790000150300E08E10201F5A30ED0F5B70CD0E0
:1007A000F5B9200E04D00201F597F599F5810126DF
:1007B00001C026F3000171DFF4C23DF30A0E03010C
:1007C0003E6F0001C5DF00C0F4F20150300E08E1B9
:1007D0000201F5B70AD0F5A108D0F5B9200E000145
:1007E000012601C026F359DF0201300EF427F4C2BE
:1007F00026F3000152DF1200216A040E226EA30EBE
:10080000236E060E246E070E256E080E266EB4EFBC
:1008100037F0C00E1D6EA80E1E6E010E1F6E0F0E5D
:10082000206EC00E2B6EA80E2C6E010E2D6E2E6E3D
:100830002768286829682A6AB6EF37F0830ED56ED4
:10084000850ED76EED0ED66EF28AC00EF2127AEFDA
:1008500008F0C69A949E93809392200EC66E400E26
:10086000C76E93948A8493968A86A6EF05F0C95042
:10087000B3C3C9FFC730FEE3C9CF01F012009394A0
:100880008A94A8C3AAF3A8C3B3F30001F0DF03015D
:10089000B36B0001ECDF01C0A9F393948A840301D8
:1008A000A9C301F00001120093948A940301B36973
:1008B0000001DDDF93948A84BBEF05F093948A9462
:1008C0000301AE514009B06FB36F0001D0DFAFC379
:1008D000B3F3CDDF93948A84120093948A94030136
:1008E000AD51A009AF6FB36F0001C1DFAEC3B3F369
:1008F000BEDF93948A84120093948A940301B051CA
:100900008009B26FB36F0001B2DFB1C3B3F3AFDFE1
:1009100093948A8412001F0E0301AD6F030EAE6F15
:100920000001DBDF030E0301AE6FAB0EAD6F010EF6
:10093000AD25E96E000EAE21EA6EEFCFB1F31F0ECA
:10094000B06F0001D9DF120093948A94FCC2FEF2CA
:10095000FCC2B3F300018BDF0301B36B000187DF3F
:100960000301B36B000183DF01C0FDF293948A841D
:100970000201FDC201F000011200020E0301AC6F82
:10098000140EAB6F0001C7DF140E0301AE6FF9C286
:10099000AFF3000193DF020E0201FD6FFA0EFC6F50
:1009A000E96EFDC2EAFFEFCFAFF3160E0301AE6FA3
:1009B000000184DF020E0201FD6FFA0EFC6F010ED2
:1009C000FC25E96E000EFD21EA6EEFCFAFF3170EA6
:1009D0000301AE6F000172DF030E0301AC6F0A0E5C
:1009E000AB6F000198DF0A0E0201FC6F0001ACDF63
:1009F00001C0FCF2000E020101B0010E000AD8B4E1
:100A000002D00001F0D700011200020E0301AC6F0A
:100A1000140EAB6F00017FDF140E0301AE6FF9C23D
:100A2000AFF300014BDF120E0301AE6F010EAF6F8B
:100A3000000144DF030E0301AC6F0A0EAB6F00012F
:100A40006ADF0A0E0201FC6F00017EDF01C0FCF2CA
:100A5000000E020101B0010E000AD8B402D000015C
:100A6000F0D7020E0301AC6F140EAB6F000153DF21
:100A7000120E0301AE6FAF6B000120DF180E0201F2
:100A8000FC6F000161DF01C0FAF2190E0201FC6F78
:100A900000015ADF01C0FBF20201FAC201F0FBC201
:100AA00002F000015FEF05F01F0E0301AD6F0C0EA9
:100AB000AE6F000112DF0201F96B0001A6D702C080
:100AC000F8F201C0F7F20201F551020804E1F56BFA
:100AD000F8B1F52B0BD0F891F5B1F881F96BF8C2AC
:100AE000FBF2F7C2FAF2000148DF0201020E030135
:100AF000AC6FAB6F00010FDF020E0201FC6F000153
:100B000023DF01C0F6F20201F691F5B1F681020E83
:100B10000301AE6FF6C2AFF30001D0DE0201F55360
:100B200002E0150E01D0120EF96F040E0301AE6F34
:100B3000F9C2AFF30001C2DE1F0E0301B06F040E55
:100B4000B16F0001D9DE83EF06F083D61D0E0301DD
:100B5000A86F000194DE01C0F4F20201F4A702D0F4
:100B60000001F4D7F451FF0A010BD8B402D0000100
:100B7000EDD7000199D6010E03012D6F0001BDDCF8
:100B8000066A5A80576A566A080E0301AE6FAF6B49
:100B9000000194DE090E0301AE6FAF6B00018EDE23
:100BA0000C0E0301AE6FF70EAF6F000187DE0D0E66
:100BB0000301AE6F1B0EAF6F000180DE0A0E030152
:100BC000AE6FF70EAF6F000179DE0B0E0301AE6F53
:100BD0001B0EAF6F000172DE040E0301AE6FF80E44
:100BE000AF6F00016BDE050E0301AE6F1B0EAF6F22
:100BF000000164DE020E0301AC6FAB6B00018BDE03
:100C00000301AE6B0D0EAF6F000158DE020E030143
:100C1000AE6F320EAF6F000151DE030E0301AE6FF7
:100C2000400EAF6F00014ADE090E0301AE6F3F0EAA
:100C3000AF6F000143DE060E0301AE6F120EAF6F01
:100C400000013CDE070E0301AE6F0C0EAF6F00011A
:100C500035DE0A0E0301AE6FEE0EAF6F00012EDE21
:100C60000B0E0301AE6F050EAF6F000127DE030E02
:100C70000301AC6F040EAB6F00014DDE040E0301E7
:100C8000AE6F21C0AFF3000119DE050E0301AE6F98
:100C900022C0AFF3000112DE020E0301AE6F23C0CB
:100CA000AFF300010BDE030E0301AE6F24C0AFF300
:100CB000000104DE0301AE6B25C0AFF30001FEDDD1
:100CC000010E0301AE6F26C0AFF30001F7DD120E77
:100CD0000301A86F0001D3DD01C05BF0100E02011B
:100CE000F96F010EFB6FFA6B000147DE140E020173
:100CF000F96F040EFB6F720EFA6F00013EDE020107
:100D0000F56B0001D1D61F0E0301B06F040EB16F59
:100D10000001F2DD7BEF08F05A926369646965694E
:100D20006669676968696C6B6B6B6A6B696B7CEF92
:100D300008F0FAC251F0F9C250F0F8C24FF0F7C211
:100D40004EF0B2EF07F00301626B636B010E646F4C
:100D5000DA6AD96A030E676F5A0E666F030EEA6E7F
:100D60005E0EE96E67C3E2FF66C3E1FF64C365F32D
:100D7000D890E550EE02F3506223F4506323652FC0
:100D8000F7D762C3DEFF63C362F3636BD8B0632B34
:100D9000662BD8B4672B642B64510508DFE1000192
:100DA0001200016A026A006A036A0201FD5102E14F
:100DB000FC5118E0100EFE6FD890FA37FB37003662
:100DC0000336FD51035C02E1FC51005C07E3FC517A
:100DD000005ED8A00306FD51035ED88001360236BE
:100DE000FE2FEAD7000128EF07F051C05DF350C095
:100DF0005CF34FC05BF34EC05AF3410E0301616FC9
:100E0000C60E606F4E0E5F6F6D0E5E6F00019BDF52
:100E1000390E020100244E6E300E01204F6E000E7E
:100E20000220506E000E0320516E50C000F051C0E1
:100E300001F0026A036A51C0F9F250C0F8F251C0E1
:100E4000FBF250C0FAF27F0EFD6FFC690001A9D7DA
:100E500000C001F003C002F0B3EF07F00201F46B31
:100E6000F451040865E3F451240DF350036A016E54
:100E7000010E032601C0F5F203C0F6F2F5C2E9FF48
:100E8000F6C2EAFF0A0EEF6E230EF525E96E000E9C
:100E9000F621EA6EEF90230EF525E96E000EF6219D
:100EA000EA6EEF82230EF525E96E000EF621EA6E5A
:100EB000EF84230EF525E96E000EF621EA6EEF9819
:100EC000230EF525E96E000EF621EA6EEF960F0E61
:100ED000F525E96E000EF621EA6EEF3C01D013D045
:100EE0000F0EF525E96E000EF621EA6EEFCF47F3FF
:100EF000000102EC00F00F0E0201F525E96E000E74
:100F0000F621EA6EEF68210EF525E96E000EF62156
:100F1000EA6EEC6AED521E0EEF6E100EF525E96ECC
:100F2000000EF621EA6EEC6AED52EF6AF42B98D7C8
:100F3000D65000016127D7506223CE506127CF5091
:100F40006223CC506127000E6223B2506127B35058
:100F500062230201FA6BF96B62C0F8F261C0F7F22A
:100F60000001E7D642D702C060F001C05FF0040E76
:100F70006027605112080AE2FF0A03E15F50870808
:100F800005E2880E5F5E130E605BF3D760510308C5
:100F900002E3040E60277DEF08F00201F96BF951BE
:100FA00004086BE3F951240DF350036A016E010E3E
:100FB000032601C0FAF203C0FBF2FAC2E9FFFBC24A
:100FC000EAFFEF500A0857E1FAC2E9FFFBC2EAFF65
:100FD000EF6A0B0EFA25E96E000EFB21EA6EF8C2ED
:100FE000ECFFED52F7C2EFFF0D0EFA25E96E000E91
:100FF000FB21EA6EEC6AED52EF6A070EFA25E96E04
:10100000000EFB21EA6EEF6AEC6AEC6AEC6A230ED2
:10101000FA25E96E000EFB21EA6EEF80230EFA2519
:10102000E96E000EFB21EA6EEF960F0EFA25E96ECF
:10103000000EFB21EA6EEF3C01D013D00F0EFA2513
:10104000E96E000EFB21EA6EEFCF47F3000102ECE0
:1010500000F00F0E0201FA25E96E000EFB21EA6E88
:10106000EF68230EFA25E96E000EFB21EA6EEF828F
:10107000F9C201F004D0F92B92D7FE0E016E0001E7
:1010800055EF08F00201F46BF4532EE1036AF451BA
:101090006D0F016E000E032201C0F5F203C0F6F2DF
:1010A000F86B500EF76F000178D7F6C2EAFFF5C271
:1010B000E9FF01C0EFFF036A0201F4516D0FE96E11
:1010C000000E0320EA6EEF50FE080CE0D890F435D5
:1010D000036A6E0FE96E000E0320EA6E010EEC6EDD
:1010E000ED52EF6EF42BD0D700017EEF08F0CA6B03
:1010F0001EEF04F02AD510D6B1D6C4D7B8EF37F01A
:101100005AA001D032D05A80010E565C0301466FBE
:10111000000E5758476F47511A0809E2FF0A03E1CA
:101120004651F70804E21B0E476FF70E466F1E0E7E
:10113000B06F400EB16F00017CEC04F00301AC6BAA
:101140000C0EAB6F00018BEC04F00C0E0301AE6FC4
:1011500046C3AFF300015EEC04F00D0E0301AE6F69
:1011600047C3AFF300015EEC04F0120003019C6B77
:101170009B6B93948A943A0EB36F000137EC04F0A2
:1011800003019C519A5D1AE303E199519B5D16E2BC
:1011900098C39EF397C39DF3B36B000137EC04F043
:1011A0009EC3EAFF9DC3E9FF01C0EFFF0301972B38
:1011B000D8B4982B9B2BD8B49C2BE3D793948A84D8
:1011C0009BC301F09CC302F000011200A9C3AAF363
:1011D000A8C3ABF30301AAC301F0ABC302F0000143
:1011E0001200010E0301AC6F190EAB6F00018BEC06
:1011F00004F0190E0301A86F00013FEC04F001C0D8
:1012000012F30301125303E1000E016E9AD05AB09B
:1012100006D0000175DF000E016E030192D057C0A9
:1012200059F056C058F0AC6BAB6B00018BEC04F07E
:101230000301AE6B56C0AFF300015EEC04F0010E8B
:101240000301AE6F57C0AFF300015EEC04F0020E75
:101250000301136FFE0E126F13C398F3976F9A6B0F
:10126000140E996F000182DF11C3A9F310C3A8F314
:10127000ADDF02C011F301C010F30201FF511A08E3
:1012800005E2FF0A27E1FE51F70824E3020E0301FD
:10129000136FFE0EE96E13C3EAFFEFA002D0020146
:1012A00019D003AF02D0020115D002A902D0020169
:1012B00011D0015104080BE2FF0AD8B402D0020198
:1012C00009D00051EE08D8B002D0020103D002BF0D
:1012D00003D00201FF000301FFC257F0FEC256F027
:1012E000FAC201F0FBC203F001C012F3030103C014
:1012F00013F303C0EAFF01C0E9FF030EE26E0A0E1A
:10130000E16E060E016EE6CFEEFF012EFCD7FDC2A8
:10131000EAFF0201FCC2E9FFEF680301115108086E
:101320000DE1105303E01051060808E1FDC2EAFF89
:101330000201FCC2E9FF10C3EFFF03015A90010E46
:10134000016E000135EF36F025C301F026C328F306
:1013500001C027F325C3E9FF26C3EAFFECCFA9F3B9
:10136000ED52EFCFA8F3000131DF28C3EAFF27C316
:10137000E9FF02C0ECFFED5201C0EFFF020E0301D6
:101380002525016E000E2621036E01C027F3286F6C
:10139000020E2525E96E000E2621EA6EECCFA9F398
:1013A000ED52EFCFA8F3000111DF28C3EAFF27C3F6
:1013B000E9FF02C0ECFFED5201C0EFFF060E030192
:1013C0002525016E000E2621036E01C027F3286F2C
:1013D000060E2525E96E000E2621EA6EECCFA9F354
:1013E000ED52EFCFA8F30001F1DE28C3EAFF27C3D7
:1013F000E9FF02C0ECFFED5201C0EFFF1200030E47
:101400000301986F090E976F9A6B1C0E996F00017C
:10141000ADDE76DE030E0301266F090E256F000197
:1014200093DF0301092D08D00A5306E10D51060888
:1014300003E10E51040803E0000E016E4DD00F5180
:10144000020808E1105306E108C3EAFF07C3E9FFF9
:10145000EF6A14D00F2D09D0105307E108C3EAFF3B
:1014600007C3E9FF010EEF6E09D008C3EAFF07C307
:10147000E9FF020EEF6E000E016E2ED01D50215DB1
:1014800029E11E50225D26E11F50235D23E12050FB
:10149000245D20E105C3E9FF06C3EAFF030EE26E07
:1014A000110EE16E060E016EE6CFEEFF012EFCD7A7
:1014B000060E0525E96E000E0621EA6E17C3EFFF42
:1014C00018C3ECFF19C3ECFF1AC3ECFF010E016E49
:1014D00003D002D0000E016E000147EF0DF01F0E89
:1014E0000301A86F00013FEC04F001C08AF3000E75
:1014F000030101B6010E000A02E1000E01D0FF0E49
:10150000016E00011200A2C306F0070E0301A3271B
:101510001C0EA423AC6B020EAB6F00018BEC04F02D
:10152000030E0301A66FA30EA56FE96EA6C3EAFF23
:10153000EFCFAFF3AE6B00015EEC04F0030E0301DE
:10154000A66FA30EA56F010EA525E96E000EA621BC
:10155000EA6EEFCFAFF3010EAE6F00015EEC04F068
:10156000030E0301A66FA30EA56FE96EA6C3EAFFE3
:10157000EFCFAFF3020EAE6F00015EEC04F0030E8E
:101580000301A66FA30EA56F010EA525E96E000E3F
:10159000A621EA6EEFCFAFF3030EAE6F00015EEC53
:1015A00004F0120093948A947A0E0301B36F000141
:1015B00037EC04F0ACC3B3F337EC04F093948A84B3
:1015C000120093948A947A0E0301B36F000137ECF2
:1015D00004F00301B0C303F0AF51D8B4B007AF07B4
:1015E00003100EE0AEC3EAFFADC3E9FFEFCFB3F3E4
:1015F000000137EC04F00301AD2BD8B4AE2BEAD7D1
:1016000093948A84000112000301AC6B020EAB6F4D
:1016100000018BEC04F0020E0301AE6FF80EAF6F09
:1016200000015EEC04F0030E0301AE6F1B0EAF6F02
:1016300000015EEC04F0060E0301A9271C0EAA238C
:10164000030EAC6FA90EAB6FE96EACC3EAFFEFCF30
:10165000AFF3060EAE6F00015EEC04F0030E030163
:10166000AC6FA90EAB6F010EAB25E96E000EAC217D
:10167000EA6EEFCFAFF3070EAE6F00015EEC04F041
:101680000301AC6B00018EDFA7C3AEF3A6C3ADF3BD
:101690000301B06B060EAF6F000193DF0301210E53
:1016A000AB6FAE6BAD6FB06B060EAF6F000189DF35
:1016B000080E0301AC6F000175DF0301A85302E1BE
:1016C000000E01D0060EAB6FAC6F00016BDF120095
:1016D0001C0E0301A86F00013FEC04F001C095F35C
:1016E000000E030101B2010E000A10E01F0EB06FE0
:1016F000800EB16F00017CEC04F01F0E0301AD6F92
:10170000800EAE6F00016DEC04F003011C0EAD6F96
:101710000A0EAE6F00016DEC04F01F0E0301B06FF6
:10172000080EB16F00017CEC04F05B500508D8A4F2
:10173000E2D01C0E0301A86F00013FEC04F001C0D1
:1017400095F3030101500A0BD8A402D00001F1D790
:101750001C0EA86F00013FEC04F001C095F3000ED1
:10176000030101B2010E000AD8B4C6D01F0EAD6F3E
:10177000080EAE6F00016DEC04F00301AC6BAB6BB7
:1017800000018BEC04F00301A86B00013FEC04F0B6
:1017900001C089F3010E0301A86F00013FEC04F0C2
:1017A00001C08AF3060E0301A86F00013FEC04F0AC
:1017B00001C08BF3070E0301A86F00013FEC04F09A
:1017C00001C08CF303018B2BD8B48C2BAE6B8BC375
:1017D000AFF300015EEC04F0010E0301AE6F8CC3A9
:1017E000AFF300015EEC04F0030E0301966F8D0E63
:1017F000956F96C398F3976F9A6B070E996F0001D8
:10180000B5DC0301946B94510F0867E31C0EA86FBD
:1018100000013FEC04F001C095F3000E030101B29A
:10182000010E000A55E090AB53D01F0EB06F800E32
:10183000B16F00017CEC04F01F0E0301AD6F800E50
:10184000AE6F00016DEC04F01C0E0301AD6F0A0ECB
:10185000AE6F00016DEC04F01F0E0301B06F080EB7
:10186000B16F00017CEC04F01C0E0301A86F0001B5
:101870003FEC04F001C095F3030101500A0BD8A41A
:1018800002D00001F1D71F0EAD6F080EAE6F000140
:101890006DEC04F00301AE6B8BC3AFF300015EECA3
:1018A00004F0010E0301AE6F8CC3AFF300015EECD8
:1018B00004F0030E0301966F8D0E956F96C398F397
:1018C000976F9A6B070E996F000150DC03D00301EC
:1018D00004D000010301942B96D7AE6B89C3AFF3FC
:1018E00000015EEC04F0010E0301AE6F8AC3AFF39A
:1018F00000015EEC04F0030100011200010E03017F
:10190000896F0001ECDD01C024F30301243D03D005
:10191000000E016EA8D024C3A2F3A46BA36B000138
:10192000F2DD0301096B010E086F080E0B6F0A6BE5
:10193000060E0C6F040E0D6F072D0AD00F6B010EF3
:101940000E6F1A691B691C691D691E691F6911D018
:101950000F6B020E0E6F05C3E1FF06C3E2FF030E1D
:10196000EA6E1A0EE96E060E016EE6CFEEFF012E4C
:10197000FCD7030EEA6E100EE96EE26A210EE16EEC
:10198000060E016EE6CFEEFF012EFCD720C019F344
:101990001FC018F31EC017F31DC016F3060E052551
:1019A000E96E000E0621EA6EEFCF00F0ECCF01F0F9
:1019B000ECCF02F0ECCF03F000501619256F015068
:1019C0001719266F02501819276F03501919286F1D
:1019D00025512714006E26512814016E2751291411
:1019E000026E28512A14036E005206E1015204E1EE
:1019F000025202E1035209E02EC023F32DC022F36C
:101A00002CC021F32BC020F30ED0060E0525E96E65
:101A1000000E0621EA6EEFCF20F3ECCF21F3ECCFDE
:101A200022F3ECCF23F3030E266F080E256F00017F
:101A30008BDC030E0301A76F1A0EA66F060EA86FAC
:101A4000AA6B1C0EA96F0001DFDD030E0301AE6F50
:101A5000080EAD6FB06B1C0EAF6F0001B2DD38DE4B
:101A6000010E016E0301000172EF0DF0000E5AB27B
:101A7000010E000A01E02ED0020E0301066FFA0EDD
:101A8000056F030E086F040E076F0001B8D40152F2
:101A900001E12FD080EC08F00301045319E1EA6A58
:101AA000630EE96E020EE26EFA0EE16E060E016E34
:101AB000E6CFEEFF012EFCD703C36CF002C36BF040
:101AC00001C36AF000C369F0000113D003D0030121
:101AD0005A820001020E0301066FFA0E056F076BB2
:101AE00000010CD7015202E05A9203D0000E016EA1
:101AF00002D0010E016E4FEF36F0140E5824030190
:101B0000596F000E59205A6F53515925576F545130
:101B10005A21586F58511A0809E2FF0A03E1575138
:101B2000F70804E2F80E575F1B0E585BAC6B100E03
:101B3000AB6F00018BEC04F0100E0301AE6F57C3C6
:101B4000AFF300015EEC04F0110E0301AE6F58C359
:101B5000AFF300015EEC04F0010E0301555D006E71
:101B6000000E5659036E0050572703505823585102
:101B70001A0809E2FF0A03E15751F70804E2F80ED8
:101B8000575F1B0E585B120EAE6F57C3AFF30001C9
:101B90005EEC04F0130E0301AE6F58C3AFF3000107
:101BA0005EEC04F01F0E0301B06F300EB16F000148
:101BB0007CEC04F01F0E0301A86F00013FEC04F061
:101BC00001C059F3000E030101BA010E000AD8B496
:101BD00002D00001EFD7160EA86F00013FEC04F011
:101BE00001C058F3170E0301A86F00013FEC04F089
:101BF00001C057F3030157C301F058C302F00001BD
:101C00001200140E582403012F6F000E5920306F5C
:101C10002B512F252D6F2C5130212E6F2E511A084C
:101C200009E2FF0A03E12D51F70804E2F80E2D5FE7
:101C30001B0E2E5BAC6BAB6B00018BEC04F0030155
:101C4000AE6B2DC3AFF300015EEC04F0010E030197
:101C5000AE6F2EC3AFF300015EEC04F0020E030181
:101C6000AE6F2DC3AFF300015EEC04F0030E030171
:101C7000AE6F2EC3AFF300015EEC04F01200020E53
:101C80000301A225016E000EA321036E01C0A4F37F
:101C9000A56F020EA225E96E000EA321EA6EECCF1D
:101CA000A9F3ED52EFCFA8F30001E6EC08F0A5C3CD
:101CB000EAFFA4C3E9FF02C0ECFFED5201C0EFFF51
:101CC000040E0301A225016E000EA321036E01C0C4
:101CD000A4F3A56F040EA225E96E000EA321EA6EFF
:101CE000ECCFA9F3ED52EFCFA8F30001E6EC08F03A
:101CF000A5C3EAFFA4C3E9FF02C0ECFFED5201C097
:101D0000EFFF0A0E0301A225016E000EA321036E50
:101D100001C0A4F3A56F0A0EA225E96E000EA3214F
:101D2000EA6EECCFA9F3ED52EFCFA8F30001E6EC99
:101D300008F0A5C3EAFFA4C3E9FF02C0ECFFED521F
:101D400001C0EFFF1200030E0301196F040E186F9C
:101D500019C398F3976F9A6B140E996F0001B6EC44
:101D600008F003010451F00B400803E0000E016E7F
:101D700059D004510F0B006E00345E6E5E36FC0EBF
:101D80005E16546B536B566B5EC055F30001B5DEA7
:101D900002C003F301C002F303012C6B5EC02BF3FE
:101DA00000012FDF03010251031103E0000E016E59
:101DB00039D0030EA36F040EA26F000160DF020191
:101DC000FA51FB110CE0FAC2E9FFFBC2EAFF14C3AF
:101DD000EFFF15C3ECFF16C3ECFF17C3ECFF060EB5
:101DE000FC25E96E000EFD21EA6E10C3EFFF11C362
:101DF000ECFF12C3ECFF13C3ECFFFFC2EAFFFEC20D
:101E0000E9FF0DC3EFFF01C3EAFF030100C3E9FFD0
:101E10005E50065D006E000E075900C0EFFFEC6ECD
:101E2000010E016E000166EF36F003019A6B996BAB
:101E3000986B976BD8908E31906F8D318F6F8CC36C
:101E400092F38BC391F390C303F08F51D8B49007F2
:101E50008F07031013E092C3EAFF91C3E9FF020E5C
:101E60009127D8B0922BECCF03F0ED52EF5097278B
:101E700003509823000E99239A23E5D78D51010B27
:101E8000006E036A005003100AE092C3EAFF91C398
:101E9000E9FFEF509727000E982399239A239AC3BE
:101EA00096F399C395F398C394F397C393F396C3AA
:101EB00090F395C38FF38F5302E1905323E09A6B15
:101EC000996B9E6B9D6B98C39CF397C39BF38FC3D9
:101ED00000F090C301F0026A036A00509725976FE3
:101EE00001509821986F02509D21996F03509E21B7
:101EF0009A6F9AC396F399C395F398C394F397C3D3
:101F000093F3D5D798C303F0031E9751FF0A016ED0
:101F100003C002F00001120093948A943A0E030168
:101F2000B36F000137EC04F00301B36B000137EC31
:101F300004F001C08DF393948A8403018DC301F0F2
:101F4000000112000301895307E18A5305E1FF0EE6
:101F5000016E026EA1D017D0892D15D08A5313E1DE
:101F60000001DADF03018E6B01C08DF301C003F0C5
:101F7000000E006A0006001AFF0E031A00C001F0EE
:101F800003C002F089D0AC6BAB6B00018BEC04F0AA
:101F90000301A86B00013FEC04F001C08BF3010EBC
:101FA0000301A86F00013FEC04F001C08CF3100E98
:101FB0000301AE6F8BC3AFF300015EEC04F0110EB2
:101FC0000301AE6F8CC3AFF300015EEC04F00301BC
:101FD0008C511B081BE303E18B51F70817E3010E3B
:101FE000895D006E000E8A59036E00508B270350E6
:101FF0008C238C511A0809E2FF0A03E18B51F70880
:1020000004E2F80E8B5F1B0E8C5B0AD0010E895D1B
:10201000006E000E8A59036E00508B2703508C23EC
:10202000120EAE6F8BC3AFF300015EEC04F0130E23
:102030000301AE6F8CC3AFF300015EEC04F01F0E22
:102040000301B06F300EB16F00017CEC04F01F0E85
:102050000301A86F00013FEC04F001C08DF3000EF6
:10206000030101BA010E000AD8B402D00001EFD773
:10207000160EA86F00013FEC04F001C08BF3170EA1
:102080000301A86F00013FEC04F001C08CF30301D1
:102090008BC301F08CC302F0000112005E500301FB
:1020A0002725296F000E28212A6F2C6F29C32BF3B7
:1020B0000001A7DD120094C395F393C396F392C376
:1020C00097F391C398F395C300F096C301F097C3BB
:1020D00002F098C303F0120089C301F08AC38CF3A5
:1020E00001C08BF389C3E9FF8AC3EAFFECCFA9F3F0
:1020F000ED52EFCFA8F30001E6EC08F08CC3EAFF45
:102100008BC3E9FF02C0ECFFED5201C0EFFF020EEE
:1021100003018925016E000E8A21036E01C08BF335
:102120008C6F020E8925E96E000E8A21EA6EECCFD3
:10213000A9F3ED52EFCFA8F30001E6EC08F08CC351
:10214000EAFF8BC3E9FF02C0ECFFED5201C0EFFFD5
:10215000040E03018925016E000E8A21036E01C061
:102160008BF38C6F040E8925E96E000E8A21EA6ECE
:10217000EFCF91F3ECCF92F3ECCF93F3ECCF94F35A
:10218000000199DF8CC3EAFF8BC3E9FF00C0EFFFBA
:1021900001C0ECFF02C0ECFF03C0ECFF080E03011E
:1021A0008925016E000E8A21036E01C08BF38C6FAE
:1021B000080E8925E96E000E8A21EA6EEFCF91F3B1
:1021C000ECCF92F3ECCF93F3ECCF94F3000173DFF9
:1021D0008CC3EAFF8BC3E9FF00C0EFFF01C0ECFF37
:1021E00002C0ECFF03C0ECFF0E0E03018925016E57
:1021F000000E8A21036E01C08BF38C6F0E0E8925B1
:10220000E96E000E8A21EA6EECCFA9F3ED52EFCF12
:10221000A8F30001E6EC08F08CC3EAFF8BC3E9FFEA
:1022200002C0ECFFED5201C0EFFF100E0301892543
:10223000016E000E8A21036E01C08BF38C6F100EAD
:102240008925E96E000E8A21EA6EECCFA9F3ED52E2
:10225000EFCFA8F30001E6EC08F08CC3EAFF8BC3D4
:10226000E9FF02C0ECFFED5201C0EFFF120E0301C7
:102270008925016E000E8A21036E01C08BF38C6FDD
:10228000120E8925E96E000E8A21EA6EECCFA9F3C1
:10229000ED52EFCFA8F30001E6EC08F08CC3EAFFA3
:1022A0008BC3E9FF02C0ECFFED5201C0EFFF12004B
:1022B000FE0E03012D6F2C6B2C510408D8A079D091
:1022C0002C51240DF350036A016E010E032601C048
:1022D0002AF303C02BF32AC3E9FF2BC3EAFFEF5015
:1022E0000A0865E00B0E2A25E96E000E2B21EA6E26
:1022F000ECCF2FF3ED52EFCF2EF3020E2625E96E31
:10230000000E2721EA6EECCF03F0ED52EF502E5D68
:102310004EE103502F5D4BE12AC3E9FF2BC3EAFFD7
:10232000EF5202E12CC32DF30D0E2A25E96E000EAB
:102330002B21EA6EECCF2FF3ED52EFCF2EF326C315
:10234000E9FF27C3EAFFECCF03F0ED52EF502E5D1B
:102350002EE103502F5D2BE1070E2A25E96E000EBA
:102360002B21EA6EEFCF2EF3ECCF2FF3ECCF30F32F
:10237000ECCF31F3060E2825E96E000E2921EA6E16
:10238000EFCF00F0ECCF01F0ECCF02F0ECCF03F098
:1023900000502E5D0CE101502F5D09E10250305DCF
:1023A00006E10350315D03E12CC301F06BD02C2B0F
:1023B00083D72D51FE0803E1FE0E016E63D02D512F
:1023C000240DF350036A016E010E032601C02AF3A7
:1023D00003C02BF3010E2A25016E000E2B21036E84
:1023E00001C02EF32F6FEA6E01C0E9FF29C3E2FF9F
:1023F00028C3E1FF0A0E016EE6CFEEFF012EFCD7E7
:102400000D0E2A25016E000E2B2126C3E9FF27C3DE
:10241000EAFFECCF03F0ED52EFCF30F3EA6E01C0EC
:10242000E9FF03C0ECFFED5230C3EFFF230E2A2576
:10243000E96E000E2B21EA6EEF960F0E2A25E96E4B
:10244000000E2B21EA6EEF3C01D013D00F0E2A258F
:10245000E96E000E2B21EA6EEFCF47F3000102EC8C
:1024600000F00F0E03012A25E96E000E2B21EA6E03
:10247000EF68230E2A25E96E000E2B21EA6EEF820B
:102480002DC301F0000125EF1BF0F29A53C047F372
:1024900052C046F3F28A030146C301F047C302F07B
:1024A000000112000F0E03014425E96E000E4521C4
:1024B000EA6EEF3C01D01AD00F0E4425E96E000EF3
:1024C0004521EA6EEFCF47F3000102EC00F00F0E5A
:1024D00003014425E96E000E4521EA6EEF68230EE4
:1024E0004425E96E000E4521EA6EEF82070E442571
:1024F000E96E000E4521EA6EEF6AEC6AEC6AEC6A5E
:102500000D0E4425E96E000E4521EA6EEC6AED528F
:10251000EF6A230E4425E96E000E4521EA6EEFA610
:1025200004D0000180EC08F00301230E4425E96E7D
:10253000000E4521EA6EEF96210E4425E96E000E4D
:102540004521EA6EEC6AED521E0EEF6E230E442515
:10255000E96E000E4521EA6EEF98230E4425E96EE0
:10256000000E4521EA6EEFA006D044C3E9FF45C343
:10257000EAFFEF6A06D044C3E9FF45C3EAFF0A0E4B
:10258000EF6E100E4425E96E000E4521EA6EEC6AEE
:10259000ED52EF6A000112001F0E0301A86F000147
:1025A0003FEC04F001C08AF3000E030101B6010EF6
:1025B000000A02E0000E01D0010E016E00011200BF
:1025C000010E0301AC6F190EAB6F00018BEC04F030
:1025D000190E0301A86F00013FEC04F001C089F35C
:1025E0000301AC6B0E0EAB6F00018BEC04F00E0E12
:1025F0000301A86F00013FEC04F001C08BF30F0E44
:102600000301A86F00013FEC04F001C08CF3010E40
:102610000301AC6F190EAB6F00018BEC04F0190EC7
:102620000301A86F00013FEC04F001C08DF303012A
:102630008951015CD8B402D00001CAD7AC6B0C0E32
:10264000AB6F00018BEC04F00C0E0301A86F0001CE
:102650003FEC04F001C089F30D0E0301A86F0001E7
:102660003FEC04F001C08AF303018A518C5D16E34C
:1026700003E18B51895D12E289518B5D006E8A51B5
:102680008C59036E0050FF0AF80F006E1B0E0356A4
:1026900000C001F003C002F01CD01BD089518B5D3B
:1026A00009E18A518C5D06E1F70E016E1B0E026E88
:1026B00010D00FD08B51895D8D6F8C518A598E6FE0
:1026C000010E8D5D006E000E8E59036E00C001F08C
:1026D000026E0001A8EF14F0060E0301A225A86FF8
:1026E0001C0EA321A96F010EA825A66F000EA9211B
:1026F000A76FAC6B100EAB6F00018BEC04F0100EEB
:102700000301AE6FA6C3AFF300015EEC04F0110E3F
:102710000301AE6FA7C3AFF300015EEC04F0010E3E
:102720000301A45D006E000EA559036E0050A6279C
:102730000350A723120EAE6FA6C3AFF300015EECE9
:1027400004F0130E0301AE6FA7C3AFF300015EECFC
:1027500004F01F0E0301B06F300EB16F00017CEC6E
:1027600004F01F0E0301A86F00013FEC04F001C04C
:10277000A8F3000E030101BA010E000AD8B402D07A
:102780000001EFD7160EA86F00013FEC04F001C066
:10279000A7F3170E0301A86F00013FEC04F001C07E
:1027A000A6F30301A6C301F0A7C302F000011200C3
:1027B000140E5E6E450E03018E6F8F6B140E8C250A
:1027C000906F000E8D21916F5C2AD8B45D2A5DC098
:1027D00093F35CC092F3956B946B640E966F8BC30E
:1027E00097F3996B986B20C09DF31FC09CF31EC09C
:1027F0009BF31DC09AF3060E8925E96E000E8A210F
:10280000EA6EEFCF9EF3ECCF9FF3ECCFA0F3ECCFCB
:10281000A1F3030EA36F8E0EA26F00013FEC0EF02A
:10282000030189C301F08AC303F001C0A2F303C00E
:10283000A3F3140E8C25A46F000E8D21A56F03C089
:10284000A7F301C0A6F3A86BAA6FA4C3A9F3000164
:1028500004EC0BF0030E0301A36F8E0EA26FA3C353
:10286000AEF3AD6FB06B140EAF6F0001E1EC0AF088
:102870000301A36BA26BA56B140EA46F00012CDFE8
:1028800002C099F301C098F306C0A2F30301A46B40
:102890000A0EA36F000183EC0AF0030E0301A36F7D
:1028A000980EA26FA3C3AEF3AD6FB06B020EAF6F05
:1028B0000001E1EC0AF006C0A2F30301A46B140EC0
:1028C000A36F000183EC0AF0000E016E026E12008D
:1028D000010E0301896F00015FDE0152F9E003017F
:1028E000603D08D0010E896F00016FEC0AF001C055
:1028F00060F30301603D01D0FBD060C3A2F3A46B81
:10290000140EA36F000183EC0AF054C366F353C3A3
:1029100065F356C368F355C367F35AC36CF359C3E1
:102920006BF358C36AF357C369F35EC370F35DC3B7
:102930006FF35CC36EF35BC36DF33F0E030172155F
:10294000726FF00E7115716F5FC372F3000138D6AC
:1029500002C074F301C073F30301745303E17351B4
:10296000280805E2280E735F000E745B02D0746BBA
:10297000736B766B756B786B776B030E8A6F650E76
:10298000896F00016CEC10F0140E03016127000E3A
:1029900062235FA30FD0040E6127000E6223020E94
:1029A000796F040E7A6F7B6F7C6B0F0E7115600967
:1029B000716F04D00F0E71155009716F20C080F334
:1029C0001FC07FF31EC07EF31DC07DF3060E512590
:1029D000E96E000E5221EA6EEFCF81F3ECCF82F365
:1029E000ECCF83F3ECCF84F3856B060E866F62C366
:1029F00088F361C387F388C3A9F387C3A8F30001F1
:102A0000E6EC08F002C088F301C087F3030E03016F
:102A10008A6F7D0E896F8AC38CF38B6F8E6B0C0E61
:102A20008D6F000115EC0FF001C075F30301751FE8
:102A300002C076F3761F76C364F375C363F352C3A3
:102A40008AF351C389F3060E8B6F62C38DF361C3A2
:102A50008CF30001ADDE030E03018A6F650E896FF2
:102A60008AC3AEF3AD6FB06B140EAF6F0001E1EC33
:102A70000AF003015FA30ED0030E8A6F790E896FEF
:102A80008AC3AEF3AD6FB06B040EAF6F0001E1EC23
:102A90000AF0030160C3A2F3A46B140EA36F00013C
:102AA00083EC0AF062C38AF361C389F3A2EC0FF0EE
:102AB00002C064F301C063F360C3A2F30301A46B1B
:102AC000240EA36F000183EC0AF064C3ACF3D2ECD4
:102AD0000AF063C3ACF3D2EC0AF060C3A2F30301C3
:102AE000A46BA36B000183EC0AF068EC0BF003010C
:102AF0000001120003012651240DF350036A016EF8
:102B0000010E032601C03DF303C03EF33F6B1E0ED2
:102B10003D25E96E000E3E21EA6EEF6A1F0E3D254F
:102B2000016E000E3E21036E01C044F3456F0001AB
:102B3000ACDC45C3EAFF44C3E9FF02C0ECFFED5241
:102B400001C0EFFF210E03013D25E96E000E3E217D
:102B5000EA6EEC6AED521E0EEF6E0D0E2925E96E3F
:102B6000000E2A21EA6EEFA41AD0000180EC08F0D2
:102B700003013DC344F33EC345F3230E3D25E96EF7
:102B8000000E3E21EA6EEFA002D0000E01D0010E31
:102B900045C3EAFF44C3E9FFEF6E73EF1AF0160E68
:102BA0003D25E96E000E3E21EA6EEFCF31F3ECCF0A
:102BB00032F3ECCF33F3ECCF34F30E0E2925E96E6C
:102BC000000E2A21EA6EECCF45F3ED52EFCF44F32D
:102BD000466B476B080E2925E96E000E2A21EA6E26
:102BE000EFCF00F0ECCF01F0ECCF02F0ECCF03F030
:102BF0000050315D006E01503259016E0250335960
:102C0000026E03503459036E0050445F0150455B1F
:102C10000250465B0350475B100E3D25E96E000EE7
:102C20003E21EA6EECCF03F0ED52EFCF00F003C08F
:102C300001F0026A036A0050445D406F015045593B
:102C4000416F02504659426F03504759436F43AF9B
:102C50000AD0140E3D25E96E000E3E21EA6EEC6AA4
:102C6000ED52EF6A0AD0140E3D25E96E000E3E21AA
:102C7000EA6E2DC3EFFF2EC3ECFF3DC3E9FF3EC359
:102C8000EAFFEF2CB5D00D0E2925E96E000E2A21A2
:102C9000EA6EEFB212D0000180EC08F00D0E0301D5
:102CA0002925E96E000E2A21EA6EEFA804D0040E51
:102CB0003F6F3FEF1AF073EF1AF01A0E3D25016EC9
:102CC000000E3E2101C044F3456F040E2925E96E34
:102CD000000E2A21EA6EEFCF46F3ECCF47F3ECCF9C
:102CE00048F3ECCF49F32B5146272C514723000ED4
:102CF00048234923010E4625006E000E4721016E30
:102D0000000E4821026E000E492145C3EAFF44C36C
:102D1000E9FF00C0EFFF01C0ECFF02C0ECFFEC6E6A
:102D20001A0E3D25E96E000E3E21EA6EEFCF2DF31F
:102D3000ECCF2EF3ECCF2FF3ECCF30F30D0E292593
:102D4000E96E000E2A21EA6EEFB80DD03DC3E9FF0F
:102D50003EC3EAFF020EEF6E000180EC08F0120E97
:102D600003013F6F8CD33DC3E9FF3EC3EAFF030E6F
:102D7000EF6E100E3F6F140E3D25016E000E3E21CA
:102D8000036E456F0E0E2925E96E000E2A21EA6EAC
:102D9000ECCF03F0ED52EFCF46F345C3EAFF01C09D
:102DA000E9FF03C0ECFFED5246C3EFFF2B512C119E
:102DB0001AE0230E3D25E96E000E3E21EA6EEF86F5
:102DC000120E3D25E96E000E3E21EA6E2CC3ECFF8B
:102DD000ED522BC3EFFF230E3D25E96E000E3E2181
:102DE000EA6EEF8404D0000180EC08F0030147D3C1
:102DF0003DC3E9FF3EC3EAFFEF52D8A4B7D00001BC
:102E000080EC08F00D0E03012925E96E000E2A2141
:102E1000EA6EEFB203D0040E3F6F31D31A0E3D2598
:102E2000016E000E3E2101C044F3456F040E2925BA
:102E3000E96E000E2A21EA6EEFCF46F3ECCF47F39E
:102E4000ECCF48F3ECCF49F32B5146272C514723C5
:102E5000000E48234923010E4625006E000E47212F
:102E6000016E000E4821026E000E492145C3EAFFA3
:102E700044C3E9FF00C0EFFF01C0ECFF02C0ECFF5C
:102E8000EC6E140E3D25016E000E3E21036E456F63
:102E90000E0E2925E96E000E2A21EA6EECCF03F012
:102EA000ED52EFCF46F345C3EAFF01C0E9FF03C08F
:102EB000ECFFED5246C3EFFF010E3D25016E000E03
:102EC0003E21036E01C044F3456FEA6E01C0E9FF85
:102ED00028C3E2FF27C3E1FF0A0E016EE6CFEEFF33
:102EE000012EFCD70D0E3D25016E000E3E2129C39B
:102EF000E9FF2AC3EAFFECCF03F0ED52EFCF46F330
:102F0000EA6E01C0E9FF03C0ECFFED5246C3EFFFDC
:102F10003DC3E9FF3EC3EAFF020EEF6E160E3D25EC
:102F2000E96E000E3E21EA6EEE52EE52EE52EDCF09
:102F300034F3EDCF33F3EDCF32F3EFCF31F3010EB6
:102F4000EE26000EEE22EE22ED221A0E3D25E96E4F
:102F5000000E3E21EA6EEFCF2DF3ECCF2EF3ECCF37
:102F60002FF3ECCF30F3120E3F6F89D21A0E3D25AE
:102F7000E96E000E3E21EA6EEFCF35F3ECCF36F36B
:102F8000ECCF37F3ECCF38F3160E3D25E96E000E8B
:102F90003E21EA6EEFCF39F3ECCF3AF3ECCF3BF3BF
:102FA000ECCF3CF3040E2925E96E000E2A21EA6ECF
:102FB000EFCF2DF3ECCF2EF3ECCF2FF3ECCF30F39C
:102FC0002BC300F02CC301F0026A036A00502D27C6
:102FD00001502E2302502F2303503023160E3D257F
:102FE000E96E000E3E21EA6EEFCF31F3ECCF32F303
:102FF000ECCF33F3ECCF34F3040E2925E96E000E49
:103000002A21EA6EEFCF44F3ECCF45F3ECCF46F341
:10301000ECCF47F33551445DD8A423D23651455DFA
:10302000D8A41FD23751465DD8A41BD23851475D72
:10303000D8A417D23DC3E9FF3EC3EAFFEF50020810
:1030400043E10D0E2925E96E000E2A21EA6EEFA854
:1030500036D01A0E3D25E96E000E3E21EA6E2DC3D4
:10306000EFFF2EC3ECFF2FC3ECFF30C3ECFF3DC3DB
:10307000E9FF3EC3EAFF030EEF6E2B512C111AE05D
:10308000230E3D25E96E000E3E21EA6EEF86120EFC
:103090003D25E96E000E3E21EA6E2CC3ECFFED5299
:1030A0002BC3EFFF230E3D25E96E000E3E21EA6E95
:1030B000EF8404D0000180EC08F0030104D000018B
:1030C00080EC08F00301CCD11A0E3D25E96E000E0C
:1030D0003E21EA6E2DC3EFFF2EC3ECFF2FC3ECFFA2
:1030E00030C3ECFF3DC3E9FF3EC3EAFFEF500308E6
:1030F000D8A4CFD00D0E2925E96E000E2A21EA6E44
:10310000EFA82BD0230E3D25E96E000E3E21EA6E7E
:10311000EFB223D00F0E3D25E96E000E3E21EA6E80
:10312000EF3C01D01AD00F0E3D25E96E000E3E2176
:10313000EA6EEFCF47F3000102EC00F00F0E03013F
:103140003D25E96E000E3E21EA6EEF68230E3D2517
:10315000E96E000E3E21EA6EEF820D0E2925E96E22
:10316000000E2A21EA6EEFA048D0110E3F6F160E16
:103170003D25E96E000E3E21EA6EEE52EE52EE5211
:10318000EDCF34F3EDCF33F3EDCF32F3EFCF31F3B7
:10319000010EEE26000EEE22EE22ED221A0E3D2545
:1031A000E96E000E3E21EA6E010EEF24006E000E65
:1031B000EC20016E000EEC20026E000EEC20ED52B1
:1031C000ED52ED5200C0EFFF01C0ECFF02C0ECFF7A
:1031D000EC6E1A0E3D25E96E000E3E21EA6EEFCF31
:1031E0002DF3ECCF2EF3ECCF2FF3ECCF30F33DC328
:1031F000E9FF3EC3EAFF090EEF6E2B512C1144E0AC
:10320000230E3D25E96E000E3E21EA6EEFB61BD07F
:10321000230E3D25E96E000E3E21EA6EEF86120E6A
:103220003D25E96E000E3E21EA6E2CC3ECFFED5207
:103230002BC3EFFF230E3D25E96E000E3E21EA6E03
:10324000EF843F8920D0160E3D25E96E000E3E2109
:10325000EA6E39C3EFFF3AC3ECFF3BC3ECFF3CC35C
:10326000ECFF1A0E3D25E96E000E3E21EA6E35C3D5
:10327000EFFF36C3ECFF37C3ECFF38C3ECFF0001B0
:1032800080EC08F0030104D0000180EC08F0030199
:10329000E7D03DC3E9FF3EC3EAFFEF50090815E15F
:1032A000000180EC08F00D0E03012925E96E000EE7
:1032B0002A21EA6EEFA808D03EC345F33DC344F38C
:1032C000000152EC12F00301CBD03DC3E9FF3EC335
:1032D000EAFFEF50040862E1000180EC08F00D0EF7
:1032E00003012925E96E000E2A21EA6EEFA045D0E0
:1032F000100E3F6F1A0E3D25E96E000E3E21EA6E5C
:10330000010EEF24006E000EEC20016E000EEC208A
:10331000026E000EEC20ED52ED52ED5200C0EFFFB8
:1033200001C0ECFF02C0ECFFEC6E1A0E3D25E96E09
:10333000000E3E21EA6EEFCF2DF3ECCF2EF3ECCF53
:103340002FF3ECCF30F30D0E2925E96E000E2A2164
:10335000EA6EEFA809D03EC345F33DC344F3000134
:1033600052EC12F008D003013DC3E9FF3EC3EAFF6F
:10337000060EEF6E000110D003010D0E2925E96E37
:10338000000E2A21EA6EEFA806D03DC3E9FF3EC336
:10339000EAFF050EEF6E000162D003013DC3E9FFB5
:1033A0003EC3EAFFEF50050840E1000180EC08F061
:1033B0000D0E03012925E96E000E2A21EA6EEFA009
:1033C00033D0100E3F6F1A0E3D25E96E000E3E21E0
:1033D000EA6E010EEF24006E000EEC20016E000E6E
:1033E000EC20026E000EEC20ED52ED52ED5200C0CA
:1033F000EFFF01C0ECFF02C0ECFFEC6E1A0E3D25A2
:10340000E96E000E3E21EA6EEFCF2DF3ECCF2EF3E6
:10341000ECCF2FF3ECCF30F33EC345F33DC344F381
:10342000000152EC12F003011BD03DC3E9FF3EC383
:10343000EAFFEF50060814E1000180EC08F00D0EE1
:1034400003012925E96E000E2A21EA6EEFA808D0B3
:103450003EC345F33DC344F3000152EC12F00301B7
:103460000ED0000180EC08F0100E03013F6F38C34E
:1034700030F337C32FF336C32EF335C32DF30301D7
:103480003F5331E0020E2925E96E000E2A21EA6E33
:10349000ECCF54F3ED52EFCF53F329C3E9FF2AC326
:1034A000EAFFECCF56F3ED52EFCF55F328C352F3BA
:1034B00027C351F334C35AF333C359F332C358F318
:1034C00031C357F330C35EF32FC35DF32EC35CF3F8
:1034D0002DC35BF33FC35FF36069626B616B0001F7
:1034E00068EC14F0030100013BEF1BF0060E020133
:1034F000FA25E96E000EFB21EA6EEFCF14F3ECCF54
:1035000015F3ECCF16F3ECCF17F3FDC2EAFFFCC2C4
:10351000E9FFEFCF18F3ECCF19F3ECCF1AF3ECCFB0
:103520001BF303011C6B060E1D6FFFC21FF3FEC2CF
:103530001EF31FC3A9F31EC3A8F30001E6EC08F0B5
:1035400002C01FF301C01EF3030E0301276F140E08
:10355000266F27C38CF38B6F8E6B0C0E8D6F000163
:1035600015EC0FF001C021F30301211F02C022F36B
:10357000221FFFC28AF3FEC289F30001A2EC0FF002
:1035800002C024F301C023F303012451215D03E1B0
:103590002351225D07E0000180EC08F0010E016E6E
:1035A00071D00301286B276B00014EEC10F0030E65
:1035B0000301276F986F976B9A6B140E996F000138
:1035C000B6EC08F0030E03018A6F896B00016CEC06
:1035D00010F003010CC300F000380F0B006E003632
:1035E0000036FC0E00160050EC0F256F255102012D
:1035F000FE5D0301266F000E0201FF590301276FD4
:10360000140E265D0201FE6F000E03012759020110
:10361000FF6F03010CC300F000380F0B006E003485
:10362000266F2637FC0E2617286B26C327F30001CA
:103630004EEC10F0030E0301276F266BFBC229F33B
:10364000FAC228F3000158EF11F001C020F3030182
:103650002051FE0812E020C326F3FBC228F3FAC271
:1036600027F3030E2A6F296BFFC22CF3FEC22BF344
:1036700000017AEF15F004D00301000180EC08F09E
:10368000010E016E92EF36F0040E03015225016E19
:10369000000E5321036E01C054F3556F040E5225E2
:1036A000E96E000E5321EA6EECCFA9F3ED52EFCF95
:1036B000A8F30001E6EC08F055C3EAFF54C3E9FFA4
:1036C00002C0ECFFED5201C0EFFF060E03015225D0
:1036D000016E000E5321036E01C054F3556F060EA8
:1036E0005225E96E000E5321EA6EECCFA9F3ED529C
:1036F000EFCFA8F30001E6EC08F055C3EAFF54C38E
:10370000E9FF02C0ECFFED5201C0EFFF020E030122
:103710005225016E000E5321036E01C054F3556F04
:10372000020E5225E96E000E5321EA6EECCFA9F38A
:10373000ED52EFCFA8F30001E6EC08F055C3EAFF25
:1037400054C3E9FF02C0ECFFED5201C0EFFF1200CD
:10375000030E0301536F060E526F53C398F3976F16
:103760009A6B080E996F0001B6EC08F00301516BDB
:10377000506B01C3EAFF00C3E9FFEFCF55F3546B71
:10378000140E536F566B00017DEC0DF002C04FF329
:1037900001C04EF301C3EAFF030100C3E9FF080EB5
:1037A000EF5CEF6E01C3EAFF00C3E9FFEFCF99F3CF
:1037B000FFC298F3FEC297F39A6B0001B6EC08F0D3
:1037C000030E0301536F060E526F00015DDFFDC251
:1037D000EAFF0201FCC2E9FF06C3EFFF03C3EAFFF1
:1037E000030102C3E9FF0BC3ECFFED520AC3EFFF75
:1037F00005C3EAFF04C3E9FF0DC3ECFFED520CC3A0
:10380000EFFF50514E5D03E151514F5D02E0000E5C
:1038100001D0010E016E0001B6EF36F0010E03017A
:10382000896F00016FEC0AF001C04EF303014E3DB9
:1038300001D07ED04EC3A2F3A46B140EA36F00017F
:1038400083EC0AF0036A0201FF51080F03014C6F79
:10385000000E03204D6F056BFCC204F3076B066B73
:1038600001C309F300C308F303C30BF302C30AF354
:10387000030EEA6E0C0EE96EFEC2E2FFFDC2E1FF2E
:103880000201FF51016E04E0E6CFEEFF012EFCD7EE
:10389000030E0301536F040E526F0001F5DE080E94
:1038A0000201FF2503014F6FFBC28AF3FAC289F3BD
:1038B000010E8B6F8D6B4FC38CF30001D8EC13F0AE
:1038C000030E0301506F040E4F6F50C3AEF3AD6F84
:1038D0004DC3B0F34CC3AFF30001E1EC0AF00301B8
:1038E000A36B140EA26F4DC3A5F34CC3A4F3000148
:1038F0006CEC13F002C007F301C006F34EC3A2F351
:103900000301A46B160EA36F000183EC0AF0030EF3
:103910000301506F060E4F6F50C3AEF3AD6FB06B27
:10392000020EAF6F0001E1EC0AF068EC0BF003014E
:103930000001E3EF36F00301056B0201FA6BFA5167
:103940000408D8A059D2FA51240DF350036A016E2D
:10395000010E032601C0FFF203C000F3230EFF2572
:10396000E96E000E03010021EA6EEFB60AD0230EC5
:103970000201FF25E96E000E03010021EA6EEFA8A7
:1039800001D037D2FFC2E9FF030100C3EAFFEF50C5
:103990000A0814E0FFC2E9FF030100C3EAFFEF5287
:1039A0000EE1230E0201FF25016E000E030100212E
:1039B000036E01C0E9FFEA6EEFA001D01AD2FFC288
:1039C000E9FF030100C3EAFFEF5003080EE1230EF5
:1039D0000201FF25016E000E03010021036E01C0EC
:1039E000E9FFEA6EEFA001D004D2000145EC12F02D
:1039F00002C0FEF201C0FDF21F0E0201FF25E96EBA
:103A0000000E03010021EA6EECCF03F0ED52EFCF80
:103A100001F00201FE51035C04E305E10150FD5D8C
:103A200002E3000E01D0010E036A031021E01F0E15
:103A3000FF25E96E000E03010021EA6EECCF03F0D2
:103A4000ED52EF50FF08066FFF0E0354076F02019F
:103A5000FD51030106270201FE5103010723010E58
:103A60000625016E000E0721036E015013D00201DE
:103A70001F0EFF25E96E000E03010021EA6EECCF58
:103A800003F0ED52EF500201FD5D006E0350FE5950
:103A9000036E00500201FB6F03C0FCF2210EFF25F4
:103AA000E96E000E03010021EA6EECCF03F0ED5247
:103AB000EFCF01F00201FC51035C07E303E1FB518E
:103AC000015C03E3030195D10201010E0301896F3B
:103AD0000001CCEC12F0015201E18ED11F0E020167
:103AE000FF25016E000E03010021036E01C006F3E5
:103AF000076F000145EC12F007C3EAFF06C3E9FFB8
:103B000002C0ECFFED5201C0EFFF210E0201FF25C4
:103B1000E96E000E03010021EA6ED890EF34026EC8
:103B2000EC34036E0250ED52EF6E03C0ECFF1E0E3C
:103B30000201FF25E96E000E03010021EA6EEF2A63
:103B4000FFC2E9FF030100C3EAFF010EEF5CF70FBC
:103B5000D8B0D6D0090F0001FFEF1EF0020E03010E
:103B6000056FCED01E0E0201FF25E96E000E030187
:103B70000021EA6EEF50030803E3120E056F1AD01E
:103B8000230E0201FF25E96E000E03010021EA6EFB
:103B9000EFA007D0FFC2E9FF030100C3EAFFEF6A0D
:103BA00009D0020E056FFFC2E9FF030100C3EAFF5F
:103BB000010EEF6EA5D01E0E0201FF25E96E000E6C
:103BC00003010021EA6EEF50030823E30F0E020108
:103BD000FF25E96E000E03010021EA6EEF3C01D0E3
:103BE00013D00F0E0201FF25E96E000E0301002124
:103BF000EA6EEFCFA2F3A46BA36B000183EC0AF093
:103C000068EC0BF004D00301100E056F00012CD0FE
:103C100003010F0E0201FF25E96E000E03010021D2
:103C2000EA6EEF3C01D016D00F0E0201FF25E96EBF
:103C3000000E03010021EA6EEFCF47F3000102EC12
:103C400000F00F0E0201FF25E96E000E03010021B6
:103C5000EA6EEF68110E056FFFC2E9FF030100C3B2
:103C6000EAFF040EEF6E000103014AD01E0E0201AE
:103C7000FF25E96E000E03010021EA6EEF500308F4
:103C800003E3010E056F08D000C345F3FFC244F300
:103C9000000152EC12F0030133D000C345F3FFC220
:103CA00044F352EC12F003012BD000C345F3FFC2E2
:103CB00044F352EC12F0030123D0010E0301056F0F
:103CC000FFC2E9FF030100C3EAFF090EEF6E18D03F
:103CD0001E0E0201FF25E96E000E03010021EA6EAF
:103CE000EF50030803E3010E056F08D000C345F34E
:103CF000FFC244F3000152EC12F0030101D00301B2
:103D0000055377E005A911D0160E0201FF25E96ED3
:103D1000000E03010021EA6EEFCF01F3ECCF02F3B6
:103D2000ECCF03F3ECCF04F319D0160E0201FF25FC
:103D3000E96E000E03010021EA6EEE52EE52EE52E1
:103D4000EDCF04F3EDCF03F3EDCF02F3EFCF01F3AB
:103D5000010EEE26000EEE22EE22ED22010E0201F1
:103D6000FF25016E000E03010021036E01C006F362
:103D700003C007F30B0E0201FF25E96E000E0301DD
:103D80000021EA6EECCF54F3ED52EFCF53F30D0E5A
:103D90000201FF25E96E000E03010021EA6EECCF5F
:103DA00056F3ED52EFCF55F31A0E0201FF25E96EDF
:103DB000000E03010021EA6EEFCF5BF3ECCF5CF362
:103DC000ECCF5DF3ECCF5EF303C052F306C351F3C7
:103DD00004C35AF303C359F302C358F301C357F39F
:103DE00005C35FF36069626B616B000168EC14F0FE
:103DF00003010201FA2BA3D50001EAEF36F0E82413
:103E0000F76AF736190FF66E3E0EF7220A00F550E4
:103E1000FA6E0800F550F96E5C3B643BB63B6C3CB7
:103E20009A3C9A3CAA3CBA3CD03C03010851240D70
:103E3000F3500A6B096FE96E010E0A25EA6EEF5026
:103E4000030802E0000E01D0010E016E0001120015
:103E500003010851240DF3500A6B096F230E092743
:103E6000000E0A2309C3E9FF010E0A25EA6E000EBF
:103E7000EFB6010E016E0001120003010851240D7E
:103E8000F350036A016E010E032601C00BF303C059
:103E90000CF3230E0B25E96E000E0C21EA6EEFA643
:103EA0004FD0230E0B25E96E000E0C21EA6EEFA415
:103EB0000ED0286B140E276F00014EEC10F0230E6D
:103EC00003010B25E96E000E0C21EA6EEF94120E31
:103ED0000B25E96E000E0C21EA6EECCF0EF3ED52CD
:103EE000EFCF0DF30D5310E10E530EE1000180EC06
:103EF00008F0230E03010B25E96E000E0C21EA6E7B
:103F0000EF96000E016E1ED0120E0B25E96E000E0C
:103F10000C21EA6EFF0EEF2602E2EE52ED060AC316
:103F20000EF309C30DF300018CEC0FF00EC3EAFF92
:103F30000DC3E9FF01C0EFFF010E016E030102D0C6
:103F4000000E016E0001120015C319F314C318F31B
:103F500019C3EAFF030118C3E9FFEF522DE017C3AD
:103F60001BF316C31AF31BC3EAFF1AC3E9FFEF5290
:103F70000BE11451185D006E15511959036E00C004
:103F800001F0026E22D00ED019C3EAFF18C3E9FF78
:103F9000EFCF1CF31BC3EAFF1AC3E9FFEF501C5D10
:103FA00001E104D01A2BD8B41B2BDDD7182BD8B4C1
:103FB000192B0001CDD703011451185D006E155166
:103FC0001959036E00C001F0026E000155EF20F098
:103FD00015C319F314C318F319C3EAFF030118C377
:103FE000E9FFEF5228E017C31BF316C31AF31BC3F4
:103FF000EAFF1AC3E9FFEF5218E019C303F018C330
:10400000E9FF03C0EAFFEFCF1CF31BC3EAFF1AC3AB
:10401000E9FFEF501C5D05E118C301F019C302F080
:104020000DD01A2BD8B41B2BE2D7182BD8B4192BD0
:104030000001D2D70301000E016E026E00016EEF87
:1040400020F038C33AF337C339F33AC3EAFF030128
:1040500039C3E9FFEF5206E0392BD8B43A2B0001FF
:10406000F4D703013751395D006E38513A59036E68
:1040700000C001F0026E0001120003010C510D118D
:1040800004E00DC303F00C5103D005C003F004504D
:10409000106F03C011F311C315F310C314F30FC352
:1040A00017F30EC316F300014FD701500301102779
:1040B0000250112311C3EAFF10C3E9FFEF5204E1DC
:1040C000000E016E026E31D011C315F310C314F34C
:1040D0000FC317F30EC316F300017AD702C013F310
:1040E00001C012F30301125302E113530DE013C395
:1040F000EAFF12C3E9FFEF6A122BD8B4132B13C3E4
:1041000005F012C304F00DD011C338F310C337F318
:10411000000197DF015003011025046E02501121A8
:10412000056E10C301F011C302F00001120009C3B3
:10413000EAFF030108C3E9FFEFCF0CF30BC3EAFF6B
:104140000AC3E9FFEF500C5D17E109C303F008C390
:10415000E9FF03C0EAFFEF5203E1000E016E21D038
:1041600009C303F00851082BD8B4092B0A2BD8B483
:104170000B2B0001DCD7030109C303F008C3E9FFDF
:1041800003C0EAFFEFCF0CF30BC303F00AC3E9FF50
:1041900003C0EAFFEF500C5D02E2FF0E01D0010EFA
:1041A000016E0001120059C35CF358C35EF357C39C
:1041B0005DF303015B5303E15A51000814E25EC34F
:1041C000EAFF5DC3E9FF5C51EF5C05E15DC301F00F
:1041D0005EC302F00BD05D2BD8B45E2B5A51D8B41D
:1041E0005B075A07E7D7000E016E026E000112004E
:1041F0000301306B2F6B300E326F310E336F320E86
:10420000346F330E356F340E366F350E376F360E12
:10421000386F370E396F380E3A6F390E3B6F610EBB
:104220003C6F620E3D6F630E3E6F640E3F6F650E16
:10423000406F660E416F670E426F680E436F690EE6
:10424000446F6A0E456F6B0E466F6C0E476F6D0EB6
:10425000486F6E0E496F6F0E4A6F700E4B6F710E86
:104260004C6F730E4D6F740E4E6F750E4F6F760E52
:10427000506F770E516F780E526F790E536F7A0E22
:10428000546F556B25C32AF324C329F32AC3EAFFCD
:1042900029C3E9FFEF50200804E1292BD8B42A2BC9
:1042A000F5D72AC303F029C3E9FF03C0EAFFEF50A3
:1042B0002D0807E02AC3EAFF29C3E9FFEF502B08C6
:1042C00009E12AC3EAFF2951292BD8B42A2BE96E28
:1042D000EF5001D02B0E316F31512D081EE0036AD3
:1042E0002851006EE8BE0306016E03BE16D0036AB5
:1042F0002851006EE8BE0306010802E103520DE0FA
:10430000036A2851006EE8BE0306016E03BE07D0A3
:10431000035203E10150240802E237D18ED0285322
:1043200058E0036A2851006EE8BE030610081FE13A
:1043300003521DE12AC3EAFF29C3E9FFEF50300809
:1043400016E1010E2925E96E000E2A21EA6EEF50D2
:10435000780809E0010E2925E96E000E2A21EA6E8F
:10436000EF50580804E1020E2927000E2A23036AA1
:104370002851006EE8BE030608080DE103520BE168
:104380002AC3EAFF29C3E9FFEF50300804E1010E18
:104390002927000E2A23036A2851006EE8BE03066F
:1043A000020816E1035214E12AC3EAFF29C3E9FF18
:1043B000EF5030080DE1010E2925E96E000E2A218B
:1043C000EA6EEF50620804E1020E2927000E2A234C
:1043D00034D02AC3EAFF29C3E9FFEF50300803E0D5
:1043E0000A0E286F2AD0010E2925E96E000E2A2117
:1043F000EA6EEF50780809E0010E2925E96E000EFB
:104400002A21EA6EEF50580807E1100E286F020EBD
:104410002927000E2A2311D0010E2925E96E000E4E
:104420002A21EA6EEF50620806E1020E286F292762
:10443000000E2A2302D0080E286F2AC32CF329C3AA
:104440002BF32AC3EAFF29C3E9FFEF50300804E148
:10445000292BD8B42A2BF5D72AC303F029C3E9FFA7
:1044600003C0EAFFEFCF56F35651400806E256511B
:104470005A0803E35651200901D05651566F030ED6
:10448000586F320E576F56C359F35B6B28C35AF3FC
:104490005ABF5B07000187DE02C02EF301C02DF377
:1044A00003012D5302E12E536AE0036A2851E8BE4E
:1044B0000306006E03C001F0026A036A01AE02D077
:1044C0000206030603C059F302C058F301C057F3B4
:1044D00000C056F35D6B5C6B30C35BF32FC35AF3C4
:1044E00003C061F302C060F301C05FF300C05EF37C
:1044F0000001A3EC06F003C059F302C058F301C059
:1045000057F300C056F3320E03012D5D006E030E0B
:104510002E59036E00505625006E03500120016E87
:10452000000E0220000E592101C030F300C02FF30D
:10453000292BD8B42A2B2AC3EAFF29C3E9FFEFCFDE
:1045400056F35651400806E256515A0803E35651B5
:10455000200901D05651566F030E586F320E576F17
:1045600056C359F35B6B28C35AF35ABF5B0700016C
:104570001ADE02C02EF301C02DF392D70301295198
:104580002B5D14E12A512C5D11E103012651271105
:1045900009E027C3EAFF26C3E9FF25C3ECFFED527C
:1045A00024C3EFFF000E016E026E10D026512711BA
:1045B00009E027C3EAFF26C3E9FF2AC3ECFFED5257
:1045C00029C3EFFF2FC301F030C302F000018CEFCD
:1045D00023F029C32FF328C32EF32BC331F32AC3AF
:1045E00030F3030131512F5D3CE303E12E51305D87
:1045F00038E22C513025016E2D513121036E2F519F
:10460000035C2FE303E101502E5D2BE22C512E279A
:104610002D512F232C5130272D5131232D5303E1C0
:104620002C5100081DE22E51D8B42F072E072FC39E
:1046300033F32EC332F33051D8B43107300731C3CE
:10464000EAFF30C3E9FFEFCF34F32FC3EAFF2EC3F5
:10465000E9FF34C3EFFF2C51D8B42D072C07DED768
:1046600020D02D5303E12C5100081BE22FC333F35C
:104670002E512E2BD8B42F2B326F31C3EAFF30517D
:10468000302BD8B4312BE96EEFCF34F333C3EAFFCC
:1046900032C3E9FF34C3EFFF2C51D8B42D072C07E8
:1046A000E0D728C301F029C302F00001BBEF23F0DB
:1046B0000301216B1CC31EF31BC31DF31CC3EAFFC4
:1046C0001BC3E9FFEFCF22F322535CE022512B08FA
:1046D0000AE11CC3EAFF1B511B2BD8B41C2BE96E4B
:1046E000200EEF6E4DD02251250847E1010E1B250B
:1046F000246F000E1C21E26E24C3E1FFE6CF1FF3FE
:10470000E6CF20F3030E256F1F0E246F276B266B59
:10471000100E286F00016CD501C023F303011CC3E8
:10472000EAFF1B511B2BD8B41C2BE96E23C3EFFFF0
:10473000020E1B25246F000E1C21256F1CC338F3AD
:104740001BC337F300017DDC02C027F301C026F351
:10475000010E0301265F000E275B1CC329F31BC358
:1047600028F325C32BF324C32AF327C32DF326C331
:104770002CF300012ED704D003011B2BD8B41C2B23
:1047800003019CD71DC301F01EC302F000011200FB
:1047900025C3EAFF030124C3E9FFEFCF28F327C3B2
:1047A000EAFF26C3E9FFEF50285D40E025C3EAFF9A
:1047B00024C3E9FFEFCF28F32851400803E2285132
:1047C0005A0806E22851600846E228517A0843E375
:1047D00027C3EAFF26C3E9FFEFCF28F3285140089B
:1047E00003E228515A0806E22851600834E22851B1
:1047F0007A0831E325C3EAFF24C3E9FFEFCF28F3AA
:1048000027C3EAFF26C3E9FF200EEF24285D0EE050
:1048100027C3EAFF26C3E9FFEFCF28F325C3EAFF4A
:1048200024C3E9FF200EEF24285D15E125C3EAFF2C
:1048300024C3E9FFEF5203E1000E016E21D025C32E
:1048400003F02451242BD8B4252B262BD8B4272BA6
:1048500000019ED7030125C303F024C3E9FF03C071
:10486000EAFFEFCF28F327C303F026C3E9FF03C015
:10487000EAFFEF50285D02E2FF0E01D0010E016E4B
:104880000001120003010F6B0E6B0D6B0C6B0BC361
:1048900025F30AC324F3276BDB0E266F000178DFB4
:1048A0000301116B01C010F301BE110710530AE19F
:1048B000115308E1010E036EA40E0C6F03C00DF33B
:1048C0000E6B0F6B0CC300F00DC301F00EC302F0B2
:1048D0000FC303F00001C3EF31F0EACFE2FFE9CFED
:1048E000E1FF016A00800900F55000A005D0EE5CF0
:1048F00003E1F552F8E10DD00090F552F4E1012A00
:104900000080E2CFEAFFE1CFE9FF0800F552EBE1DA
:104910000168C8EF25F003013151070B006E3131FA
:10492000016E013201321F0E011601503325E96E6E
:10493000000E3421EA6E016A012A002A01D00136F4
:10494000002EFDD7325303E00150EF1203D0011EB9
:104950000150EF160001120003013151070B006EE8
:104960003131016E013201321F0E01160150322524
:10497000E96E000E3321EA6EEFCF01F0002A01D07C
:104980000132002EFDD7010E01160001E5EF24F0E3
:10499000030E0301325F0AE3030EEA6E320EE96E84
:1049A000EF5004E001D000D0EF2EFDD7000112003F
:1049B0000301306B30513B0846E32CC331F30F0E3B
:1049C000336F800E326F0001C7D7000E01A0010EB9
:1049D0002CC331F30301326F0F0E346F890E336F26
:1049E000000199DF2CC331F30301326B0F0E346FDA
:1049F000920E336F00018FDF2FC331F30301312B90
:104A00003107D8B405D032690001C2DF0301F8D7FD
:104A10002EC332F30001BCDF2CC331F30301326B30
:104A20000F0E346F890E336F000175DF2CC331F325
:104A30000301326B0F0E346F920E336F00016BDF88
:104A40000301302BB7D7000112007C0E0301276F42
:104A5000100E266F010E296F640E286F080E2B6F43
:104A6000660E2A6F2451010A000105E0030A0AE0DC
:104A7000010A0FE014D07C0E0301276F100E266F81
:104A800000010DD07C0E0301276F110E266F00016F
:104A900006D07C0E0301276F120E266F000126C37D
:104AA00031F30301326B0F0E346F890E336F000147
:104AB00032DF26C331F30301326B0F0E346F920ED7
:104AC000336F000128DF03012551000A000105E0D2
:104AD000010A0DE0030A15E03BD027C32DF326C3DE
:104AE0002CF329C32FF328C32EF362DF31D027C361
:104AF0002DF326C32CF32BC32FF32AC32EF358DF39
:104B000027D027C32DF326C32CF329C32FF328C3A3
:104B10002EF34EDF27C32DF326C32CF32BC32FF325
:104B20002AC32EF345DF040E03012C6FFA0E2D6FFE
:104B300000017DEC02F003012C2FF8D727C32DF3E1
:104B400026C32CF329C32FF328C32EF3000130DF33
:104B50001200EF5210E0EACF25F3E9CF24F3EFCFB4
:104B600026F34DEC03F025C3EAFF24C3E9FFE92A4D
:104B7000D8B4EA2AEED748EF26F00301236BA00E43
:104B8000F66E040EF76E22C3EAFF21C3E9FFA5D635
:104B9000015005E0010A07E0030A0AE00DD0030115
:104BA000236B000109D0010E0301236F000104D023
:104BB000020E0301236F000120C325F31FC324F35A
:104BC0000301276BDD0E266F0001E2DD0301256B7B
:104BD00001C024F301BE2507245309E1255307E151
:104BE000010E246F23C325F300012FDF030120C32F
:104BF00025F31FC324F3276BE10E266F0001C8DDE8
:104C00000301256B01C024F301BE2507245309E1EC
:104C1000255307E1020E246F23C325F3000115DF9E
:104C2000030120C325F31FC324F3276BE50E266F72
:104C30000001AEDD0301256B01C024F301BE250791
:104C4000245309E1255307E1030E246F23C325F301
:104C50000001FBDE030120C325F31FC324F3276BF0
:104C6000E90E266F000194DD0301256B01C024F3DA
:104C700001BE250724530DE125530BE10C0E266FD1
:104C800000014DEC03F022C3EAFF21C3E9FF61D725
:104C9000030100017FEF26F015C317F314C316F3C9
:104CA0000301196B186B15C3EAFF14C3E9FFEFCFBB
:104CB0001AF31A51260802E01A532EE115C3EAFF2F
:104CC00014C3E9FFEF6A17C31CF316C31BF30001FB
:104CD000EFDC19C31CF318C31BF3EADC13C31EF388
:104CE00012C31DF311C31CF310C31BF317C320F32E
:104CF00016C31FF319C322F318C321F33ED7010EC5
:104D000003011425166F000E1521176F196B186B10
:104D10001A5301E113D00ED01A513D080BE115C30F
:104D2000EAFF14C3E9FFEF6A010E1425186F000EA5
:104D30001521196F142BD8B4152BB5D7000112000B
:104D4000030113511519800B176F13AF05D0121FF4
:104D5000131F122BD8B4132B15AF05D0141F151F1A
:104D6000142BD8B4152B12511403F3CF01F0F4CF48
:104D700000F01503F350002613511403F3500020E4
:104D8000026E17AF05D0011E021E012AD8B4022AF6
:104D9000000138EF27F00301106B0E6B0A0E0F6F46
:104DA0000D6B0C6B0A510B1104E1000E016E026ECB
:104DB000DDD01051102B0A25E96E000E0B21EA6E92
:104DC000EFCF11F311512D080CE1010E0E6F1051B0
:104DD000102B0A25E96E000E0B21EA6EEFCF11F3BE
:104DE0000CD011512B0809E11051102B0A25E96E46
:104DF000000E0B21EA6EEFCF11F311512F08D8B03E
:104E0000A7D011513908D8A0A3D0115130081EE104
:104E100010510A25E96E000E0B21EA6EEF5078085A
:104E200009E010510A25E96E000E0B21EA6EEF50E1
:104E300058080CE1100E0F6F102B1051102B0A2583
:104E4000E96E000E0B21EA6EEFCF11F30F510A0845
:104E500022E111512F081EE2115139081BE3136B97
:104E60000A0E126F0DC315F30CC314F3000168D7BB
:104E7000300E0301115D01240C6F000E02200D6F36
:104E80001051102B0A25E96E000E0B21EA6EEFCFB0
:104E900011F3DFD75DD00F5110085AE111516008AE
:104EA00006E211517A0803E31151DF0B01D01151D1
:104EB000116F11512F0803E21151390806E2115107
:104EC000400846E21151460843E311512F0817E20A
:104ED0001151390814E30C35126F0D35136F123769
:104EE00013371237133712371337F00E1217300EED
:104EF000115D12250C6F000E13210D6F14D00C35AF
:104F0000126F0D35136F12371337123713371237ED
:104F10001337F00E1217410E115D0A0F12250C6F98
:104F2000000E13210D6F1051102B0A25E96E000E93
:104F30000B21EA6EEFCF11F31151600806E2115117
:104F40007A0803E31151DF0B01D01151116FB1D772
:104F50000F510A0807E10E2D05D00C1F0D1F0C2B59
:104F6000D8B40D2B0CC301F00DC302F0000152EFB9
:104F700032F003010B51240DF350036A016E010E50
:104F8000032601C00CF303C00DF3230E0C25E96EBC
:104F9000000E0D21EA6EEFB603D0000E016E0DD0AB
:104FA000000180EC08F0230E03010C25E96E000ED1
:104FB0000D21EA6EEF96010E016E00011200030151
:104FC0002B51240DF3502D6B2C6F140E2C25016EDC
:104FD000000E2D21036E01C0E9FF010E0324EA6ECD
:104FE000ECCF2DF3ED52EFCF2CF32C5305E12D53E5
:104FF00003E1000E016E2CD02B51240DF3502D6BCC
:105000002C6F0F0E2C25016E000E2D21036E01C09A
:10501000E9FF010E0324EA6EEF3C08D0896B000122
:10502000CCEC12F00150030113D012D02B51240DFF
:10503000F3502D6B2C6F230E2C27000E2D232CC329
:10504000E9FF010E2D25EA6E000EEFB2010E016E92
:105050000001120018C370F0B2EF2DF003013D51B2
:10506000240DF350036A016E010E032601C03EF3C6
:1050700003C03FF30F0E3E25E96E000E3F21EA6E9E
:10508000EF3C03D0000E016EADD0230E3E25016E25
:10509000000E3F21036E01C0E9FFEA6EEFB203D0BC
:1050A000000E016E9FD0010E3E25016E000E3F21C5
:1050B000036E01C040F3416F0B0E3E25E96E000EFA
:1050C0003F21EA6EECCF54F3ED52EFCF53F30D0EC8
:1050D0003E25E96E000E3F21EA6EECCF56F3ED520D
:1050E000EFCF55F3160E3E25E96E000E3F21EA6E16
:1050F000EFCF57F3ECCF58F3ECCF59F3ECCF5AF393
:105100001A0E3E25E96E000E3F21EA6EEFCF5BF3EB
:10511000ECCF5CF3ECCF5DF3ECCF5EF30F0E3E25EE
:10512000E96E000E3F21EA6EEFCF60F3100E3E25D0
:10513000E96E000E3F21EA6EECCF62F3ED52EFCF45
:1051400061F303C052F301C051F3180E5F6F000109
:1051500068EC14F0160E03013E25016E000E3F218F
:10516000036E01C040F3416FEA6E01C0E9FFEFCF6B
:1051700042F3ECCF43F3ECCF44F3ECCF45F3100E06
:105180003E25E96E000E3F21EA6EECCF03F0ED52B2
:10519000EFCF00F003C001F0026A036A425100261B
:1051A00043510122445102224551032241C3EAFFE7
:1051B00040C3E9FF00C0EFFF01C0ECFF02C0ECFFFD
:1051C00003C0ECFF230E3E25E96E000E3F21EA6E80
:1051D000EF92230E3E25E96E000E3F21EA6EEF9816
:1051E000010E016E0001120003013751240DF3502E
:1051F000036A016E010E032601C039F303C03AF3BE
:10520000140E3925E96E000E3A21EA6EECCF3EF31A
:10521000ED52EFCF3DF33D5305E13E5303E1000E68
:10522000016E7FD00F0E3925E96E000E3A21EA6E2D
:10523000EF3C37D00F0E3925016E000E3A21036E78
:1052400001C03DF33E6F896B00016FEC0AF03EC375
:10525000EAFF3DC3E9FF01C0EFFF0F0E030139254F
:10526000E96E000E3A21EA6EEF3C03D0000E016EAB
:1052700058D0100E3925E96E000E3A21EA6EEC6A1C
:10528000ED52EF6A0F0E3925E96E000E3A21EA6EF3
:10529000EFCFA2F3A46B280EA36F000183EC0AF0FA
:1052A0000301230E3925E96E000E3A21EA6EEF88DC
:1052B00038C3ACF30001D2EC0AF0140E0301392517
:1052C000E96E000E3A21EA6EFF0EEF2602E2EE5280
:1052D000ED06100E3925E96E000E3A21EA6EECCF8C
:1052E0003CF3ED52EFCF3BF33B2BD8B43C2B100EED
:1052F0003925E96E000E3A21EA6E3CC3ECFFED520F
:105300003BC3EFFF3C5102080AE2FF0A03E13B51B5
:10531000C90805E237C33DF30001A0DE0301010E19
:10532000016E000199EF29F070C037F336C338F3EE
:105330005BD7015012000900F6CF19F3F7CF1AF32B
:10534000F5CF36F3F1DF19C3F6FF1AC3F7FF0301F8
:10535000182F01D002D00001EED70001FDEF2DF093
:10536000EACF20F3E9CF1FF303011939F0091B6FCE
:105370001B27E20F1C6F320F1E6F19510F0B1C27DA
:105380001C271E27E90F1D6F1D271D2718390F0B1E
:105390001D271E271D371E371E1F1E3718510F0BC6
:1053A0001E271B37070E1A6F0A0E1D071E27FDE367
:1053B0001C071D27FDE31B071C27FDE31A071B27FE
:1053C000FDE3030EEA6E1A0EE96E070E1F151F9D10
:1053D000E926000EEA22E9501E0804E1EA5003081B
:1053E00001E11F8DEF50006E08E11FBD06D01FB90F
:1053F00015D01FB702D0200E03D01F871F99300E83
:105400000026EACF19F3E9CF18F300C036F3000104
:105410008BDF19C3EAFF18C3E9FF0301EE501FAD8C
:10542000DAD7000105EF2EF00900F5520CE0F6CFB7
:1054300018F3F7CF19F3F5CF36F376DF18C3F6FF7D
:1054400019C3F7FFF1D71200EF520FE0EACF19F3BB
:10545000E9CF18F3EFCF36F367DF19C3EAFF18C3BC
:10546000E9FFE92AD8B4EA2AEFD760EF2EF026C385
:105470002BF3A5DD015204E1000E016E026E6ED029
:1054800003012651240DF3502C6B2B6F0F0E2B258F
:10549000016E000E2C21036E01C0E9FF010E0324F2
:1054A000EA6EEF3C03D0286B276B15D02651240DF4
:1054B000F3502C6B2B6F100E2B25016E000E2C2140
:1054C000036E01C0E9FF010E0324EA6EECCF28F35E
:1054D000ED52EFCF27F3CA0ED8802755296F030E60
:1054E00028552A6F2651240DF3502C6B2B6F140E68
:1054F0002B25016E000E2C21036E01C0E9FF010E69
:105500000324EA6EECCF03F0ED52EFCF01F003502D
:105510002A5D19E303E12951015C15E22651240DAE
:10552000F3502C6B2B6F140E2B25016E000E2C21CB
:10553000036E01C0E9FF010E0324EA6EECCF03F015
:10554000ED52EF5003D02AC303F02951296F03C055
:105550002AF329C301F02AC302F0000112001BC381
:10556000EAFF03011AC3E9FFECCF21F3ED52EFCFBD
:1055700020F321C338F320C337F3000121EC20F0DE
:1055800002C01FF301C01EF303011E511F1103E1EE
:10559000000E016E3ED070C026F3000168DF02C02D
:1055A0001DF301C01CF303011C511D1103E1010E89
:1055B000016E2FD01D511F5D07E303E11E511C5DDD
:1055C00003E2010E226F05D01FC31DF31EC31CF39F
:1055D000226B1DC303F01C51D8B41D071C07031018
:1055E0000DE021C3EAFF2051202BD8B4212BE96E16
:1055F000EFCF36F3000198DE0301EBD71BC3EAFFC0
:105600001AC3E9FF21C3ECFFED5220C3EFFF22C311
:1056100001F0000112003BC301F03AC300F0006644
:10562000012A0900F5CFEEFF002EFBD7012EF9D796
:10563000F86A120003012E6B2D6B358129C3EAFF36
:1056400028C3E9FFECCF30F3ED52EFCF2FF327C3A0
:10565000EAFF26C3E9FFEFCF31F3ECCF32F3ECCF13
:1056600033F3ECCF34F334C339F333C302F032C332
:1056700001F031C300F0010E3127D8B0322BD8B47D
:10568000332BD8B4342B02C038F301C037F300C039
:1056900036F302C0F8FF01C0F7FF00C0F6FF030EAB
:1056A000EA6E2B0EE96E3B6B010E3A6F0001B3DF21
:1056B00003012B5125083FE134C339F333C302F012
:1056C00032C301F031C300F0010E3127D8B0322BC4
:1056D000D8B4332BD8B4342B02C038F301C037F31D
:1056E00000C036F302C0F8FF01C0F7FF00C0F6FFAC
:1056F000030EEA6E2C0EE96E3B6B010E3A6F000151
:105700008ADF03012C51250814E12E51305D0FE38F
:1057100003E12F512D5D0BE22A5305E0250E366F74
:10572000000102DE03012D2BD8B42E2B01D01CD09A
:1057300001D01AD018D02B5314E02E51305D0FE356
:1057400003E12F512D5D0BE22A5305E02BC336F305
:105750000001EADD03012D2BD8B42E2B01D004D09B
:1057600002D0359101D07FD735A108D0FF0E312767
:10577000D8A03227D8A03327D8A0342729C3EAFFDE
:1057800028C3E9FF2EC3ECFFED522DC3EFFF27C363
:10579000EAFF26C3E9FF31C3EFFF32C3ECFF33C397
:1057A000ECFF34C3ECFF2BC301F000011200030136
:1057B000226B216B70C026F3000159DE02C024F376
:1057C00001C023F303012351241103E1010E016EF3
:1057D0004ED01BC3EAFF1AC3E9FFEFCF1DF3ECCF96
:1057E0001EF3ECCF1FF3ECCF20F322692169030EE7
:1057F000276F1D0E266F030E296F210E286F2A6B4F
:10580000000118DF01C01CF303012151221106E140
:105810001C51250803E0000E016E29D02451225DA1
:105820000BE303E12151235D07E224C322F323C3E9
:1058300021F3010E256F0CD01C51250803E1020E47
:10584000256F06D01C5303E0010E256F01D0256B98
:105850001BC327F31AC326F3030E296F210E286FEB
:10586000010E2A6F0001E6DE030125C301F00001ED
:10587000B0EF2EF01EC3F8FF1DC3F7FF1CC3F6FFE9
:10588000030EEA6E200EE96E03013B6B010E3A6FC8
:105890000001C1DE030120C301F00001CAEF2EF0B8
:1058A00079C0EAFF78C0E9FF3DC3EFFFE92AD8B429
:1058B000EA2AEF6A0001782BD8B4792B1200030191
:1058C00038BF11D00F0E006E373900160A0E005C7B
:1058D00003E2300E002602D03851002600C03DF30E
:1058E0000001DEDF03010F0E37170A0E375D02E2FB
:1058F000300E02D0389F3851372737C33DF30001AF
:10590000CFDF5BEF2DF0200E030138A9300E396F89
:1059100037C300F000AE08D0001E002A00C037F3E5
:105920002D0E396F388F3881015037C33DF3640E27
:105930003E6F0001A8EC03F000C037F3300E0124E5
:1059400003013A6F37C33DF30A0E3E6F0001A8EC26
:1059500003F0300E002403013C6F300E01243B6F36
:1059600039C300F0300E3A5D04E0388338BF388523
:1059700012D039C33AF3200E396F300E3B5D04E08C
:10598000388138BF388307D0D8A4388104E13AC3BE
:105990003BF3200E3A6F38B505D038B307D038B195
:1059A00009D00CD039C33DF300017ADF3AC33DF38F
:1059B000000176DF3BC33DF3000172DF3CC33DF3E2
:1059C00000016EDF76EF2DF038C33EF337C33DF3B1
:1059D00003013B5302E13C5323E03AC3EAFF39C3DE
:1059E000E9FFEF521DE03EC303F03D513D2BD8B41B
:1059F0003E2B3F6F03C040F33AC3EAFF3951392BC6
:105A0000D8B43A2BE96EEFCF41F303C0EAFF3FC3AE
:105A1000E9FF41C3EFFF3B51D8B43C073B07D9D75F
:105A20003B5302E13C530DE03EC3EAFF3D513D2BA9
:105A3000D8B43E2BE96EEF6A3B51D8B43C073B0724
:105A4000EFD737C301F038C302F000019DEF2DF00E
:105A50000301346B1EC3EAFF1DC3E9FFEF6A1C514B
:105A6000300A000103E0010A31E04BD0000E016E64
:105A7000C250C30B0110C26EA60E006E002EFED7E0
:105A80000000C282C2B2FED7C4CF35F3030E796FD5
:105A9000200E786F300E03013D6F000101DF780E9C
:105AA00003013D6F0001FCDE35C337F3370E030100
:105AB000386F000104D7030E0301386F200E376FD3
:105AC000000121EC20F001C034F31ED00301366B3D
:105AD00084B0362B030E0001796F200E786F36C329
