:0600000022EF37F01200B0
:08000800086ED8CF09F0E0CF2B
:100010000AF00001E9CF10F0EACF0BF0E1CF0CF0CD
:10002000E2CF0DF0D9CF0EF0DACF0FF0F3CF16F00C
:10003000F4CF17F0FACF18F0F5CF19F0F6CF1AF089
:10004000F7CF1BF000C012F001C013F002C014F093
:1000500003C015F0F2AA30EF00F0F2B461EF00F047
:1000600012C000F013C001F014C002F015C003F07C
:1000700010C0E9FF0BC0EAFF0B8E0CC0E1FF0DC002
:10008000E2FF0EC0D9FF0FC0DAFF16C0F3FF17C0A2
:10009000F4FF18C0FAFF19C0F5FF1AC0F6FF1BC025
:1000A000F7FF08500AC0E0FF09C0D8FF1000F76A48
:1000B000BE0FF66E000EF7220900F5501200280C54
:1000C0000106532AD8B4542A562A5650090802E287
:1000D000552A566A850ED76EED0ED66EF29430EF25
:1000E00000F03C48544D4C3E3C424F44593E3C4845
:1000F000313E343034204572726F723C2F48313EAD
:100100003C48523E3C503E46696C65204E6F742020
:10011000666F756E642E3C2F424F44593E3C2F480B
:10012000544D4C3E00003C48544D4C3E3C424F44E4
:10013000593E3C48313E353030204572726F723C3A
:100140002F48313E3C48523E3C503E496E746572E9
:100150006E616C20536572766572204572726F72A3
:100160003C2F424F44593E3C2F48544D4C3E0000DA
:10017000485454502F312E3020254C5520004E6FBE
:100180007420666F756E64005365727665722045E3
:1001900072726F7200000D0A436F6E74656E742D7B
:1001A000547970653A200000746578742F68746D16
:1001B0006C000D0A0D0A0000200A3C48544D4C3ECC
:1001C0003C424F4459204247434F4C4F523D2346F7
:1001D000464646464620544558543D23303030303C
:1001E00030303E200A200A3C63656E7465723E3CE6
:1001F00048313E42656570436F6E74726F6C203C8F
:100200002F48313E3C2F63656E7465723E200A3C78
:1002100042523E3C63656E7465723E3C48323E44D9
:10022000617368626F6172643C2F48323E3C2F43B9
:10023000454E5445523E200A200A200A3C464F5261
:100240004D204D4554484F443D4745543E200A3CBF
:10025000503E4C43443A203C494E5055542054594A
:1002600050453D227465787422204E414D453D2213
:100270006C6364222073697A653D3230206D617849
:100280006C656E6774683D31363E200A3C696E705D
:10029000757420747970653D227375626D6974227E
:1002A0002076616C75653D22456E766961722074B9
:1002B0006578746F223E200A3C2F464F524D3E20F7
:1002C0000A200A3C464F524D204D4554484F443D6C
:1002D0004745543E200A3C696E70757420747970ED
:1002E000653D227375626D697422206E616D653D96
:1002F00022434D31222076616C75653D2241223EBC
:10030000200A3C696E70757420747970653D2273A3
:1003100075626D697422206E616D653D22434D31B9
:10032000222076616C75653D2243223E200A3C699D
:100330006E70757420747970653D227375626D6995
:100340007422206E616D653D22434D31222076611D
:100350006C75653D225A223E200A3C2F464F524D75
:100360003E200A3C464F524D204D4554484F443D97
:100370004745543E200A3C696E707574207479704C
:10038000653D227375626D697422206E616D653DF5
:1003900022434D32222076616C75653D2241223E1A
:1003A000200A3C696E70757420747970653D227303
:1003B00075626D697422206E616D653D22434D3218
:1003C000222076616C75653D2243223E200A3C69FD
:1003D0006E70757420747970653D227375626D69F5
:1003E0007422206E616D653D22434D32222076617C
:1003F0006C75653D225A223E200A3C2F464F524DD5
:100400003E200A3C464F524D204D4554484F443DF6
:100410004745543E200A3C696E70757420747970AB
:10042000653D227375626D697422206E616D653D54
:1004300022434D33222076616C75653D2241223E78
:10044000200A3C696E70757420747970653D227362
:1004500075626D697422206E616D653D22434D3376
:10046000222076616C75653D2243223E200A3C695C
:100470006E70757420747970653D227375626D6954
:100480007422206E616D653D22434D3322207661DA
:100490006C75653D225A223E200A3C2F464F524D34
:1004A0003E200A3C2F424F44593E3C2F48544D4C6D
:1004B0003E200A00430041005A0000000C426565DE
:1004C00070436F6E74726F6C00000A49503A2025B9
:1004D000752E25752E25752E25753A257500030E6A
:1004E000EA6E130EE96EEF500DE0060E016E006A23
:1004F000002EFED7012EFBD77B0E006E002EFED7FE
:10050000EF2EF3D71200030113B102D08C9801D063
:100510008C88959813B302D08C9A01D08C8A959AC6
:1005200013B502D08C9C01D08C8C959C13B702D053
:100530008C9E01D08C8E959E000095908C80030E31
:10054000006E002EFED795908C90000112000301E2
:10055000146B95908C8000009588149183B8148159
:10056000958A149383BA1483958C149583BC14854F
:10057000958E149783BE148795908C9014C301F0C8
:100580000001120095948C840000E1DF01C013F398
:10059000DEDF01C012F303011339006EF00E001606
:1005A00000501211016E0001D9EF02F095928C9269
:1005B000E9D701C012F3030101AE02D00001F8D760
:1005C000105303E095928C8202D095928C92000099
:1005D00095948C94000095908C901139126F0F0EA9
:1005E000121712C313F300018EDF030111510F0B19
:1005F000126F136F000187DF120095928C92959411
:100600008C9495908C900F0E0301136F000167DF9F
:100610000201E06BE05102080DE3030E0301136FCA
:10062000000171DF050E0301136F000158DF0201A5
:10063000E02BF0D7020E0301136F000164DF02010B
:10064000E06BE05103080EE3036AE05100012FDD87
:100650000201E16F0301106B116F0001A7DF0201BE
:10066000E02BEFD70001A0EF37F0010E03010E5D84
:10067000FC0F1DE2040F000160EF03F0800E030188
:100680000F6F010E046E13D0C00E03010F6F020E28
:10069000046E0DD0940E03010F6F030E046E07D08D
:1006A000D40E03010F6F040E046E01D00301010E7E
:1006B0000D5D0F27106B0FC311F3000177DF1200E0
:1006C000E824F76AF736DB0FF66E060EF7220A000B
:1006D000F550FA6E0800F550F96E7C06880694060F
:1006E000A00603010C510C0A000105E0060A11E006
:1006F000020A21E027D00301106B010E116F0001E7
:1007000055DF010E046E020E0301136F0001E7DED8
:1007100020D0042A010E03010D6F04C00EF3000166
:10072000A4DF0450040806E2010E03010D6F0E6FF2
:1007300000019BDF0ED00301106B100E116F000142
:1007400035DF07D0010E0301106F0CC311F3000158
:100750002DDF12000900F5520CE0F6CFE0F2F7CFE2
:10076000E1F2F5CF0CF3BDDFE0C2F6FFE1C2F7FF27
:10077000F1D7A6EF37F0216A040E226EA30E236E86
:10078000060E246E070E256E080E266EB5EF37F0A6
:10079000C00E1D6EA80E1E6E010E1F6E0F0E206E77
:1007A000C00E2B6EA80E2C6E010E2D6E2E6E2768BD
:1007B000286829682A6AB7EF37F0830ED56E850E50
:1007C000D76EED0ED66EF28AC00EF2123DEF08F033
:1007D000C69A949E93809392200EC66E400EC76E6A
:1007E00093948A8493968A8665EF05F0C95099C3DD
:1007F000C9FFC730FEE3C9CF01F0120093948A9479
:100800008EC390F38EC399F30001F0DF0301996B5F
:100810000001ECDF01C08FF393948A8403018FC33E
:1008200001F00001120093948A9403019969000178
:10083000DDDF93948A847AEF05F093948A94030120
:1008400094514009966F996F0001D0DF95C399F3D9
:10085000CDDF93948A84120093948A940301935178
:10086000A009956F996F0001C1DF94C399F3BEDFB2
:1008700093948A84120093948A9403019651800978
:10088000986F996F0001B2DF97C399F3AFDF93942C
:100890008A8412001F0E0301936F030E946F0001F0
:1008A000DBDF030E0301946F910E936F010E93250E
:1008B000E96E000E9421EA6EEFCF97F31F0E966F4C
:1008C0000001D9DF120093948A94E8C2EAF2E8C2E8
:1008D00099F300018BDF0301996B000187DF0301AE
:1008E000996B000183DF01C0E9F293948A840201CD
:1008F000E9C201F000011200020E0301926F140E12
:10090000916F0001C7DF140E0301946FE5C295F3E8
:10091000000193DF020E0201E96FE60EE86FE96E57
:10092000E9C2EAFFEFCF95F3160E0301946F0001C1
:1009300084DF020E0201E96FE60EE86F010EE82582
:10094000E96E000EE921EA6EEFCF95F3170E030171
:10095000946F000172DF030E0301926F0A0E916F14
:10096000000198DF0A0E0201E86F0001ACDF01C050
:10097000E8F2000E020101B0010E000AD8B402D064
:100980000001F0D700011200020E0301926F140E55
:10099000916F00017FDF140E0301946FE5C295F3A0
:1009A00000014BDF120E0301946F010E956F0001E1
:1009B00044DF030E0301926F0A0E916F00016ADF9C
:1009C0000A0E0201E86F00017EDF01C0E8F2000EAE
:1009D000020101B0010E000AD8B402D00001F0D724
:1009E000020E0301926F140E916F000153DF120E7D
:1009F0000301946F956B000120DF180E0201E86F70
:100A0000000161DF01C0E6F2190E0201E86F00018A
:100A10005ADF01C0E7F20201E6C201F0E7C202F0CC
:100A200000011EEF05F01F0E0301936F0C0E946F73
:100A3000000112DF0201E56B0001A6D702C0E4F25B
:100A400001C0E3F20201E151020804E1E16BE4B10B
:100A5000E12B0BD0E491E1B1E481E56BE4C2E7F274
:100A6000E3C2E6F2000148DF0201020E0301926FC9
:100A7000916F00010FDF020E0201E86F000123DF1A
:100A800001C0E2F20201E291E1B1E281020E030152
:100A9000946FE2C295F30001D0DE0201E15302E05F
:100AA000150E01D0120EE56F040E0301946FE5C21E
:100AB00095F30001C2DE1F0E0301966F040E976FBF
:100AC0000001D9DE42EF06F083D61D0E03018E6FC2
:100AD000000194DE01C0E0F20201E0A702D00001B3
:100AE000F4D7E051FF0A010BD8B402D00001EDD7D2
:100AF000000199D6010E0301136F0001F0DC526A68
:100B00005B80586A576A080E0301946F956B000169
:100B100094DE090E0301946F956B00018EDE0C0EBE
:100B20000301946FF70E956F000187DE0D0E030130
:100B3000946F1B0E956F000180DE0A0E0301946F07
:100B4000F70E956F000179DE0B0E0301946F1B0EFB
:100B5000956F000172DE040E0301946FF80E956F1D
:100B600000016BDE050E0301946F1B0E956F0001F3
:100B700064DE020E0301926F916B00018BDE0301B4
:100B8000946B0D0E956F000158DE020E0301946FF9
:100B9000320E956F000151DE030E0301946F400E7B
:100BA000956F00014ADE090E0301946F3F0E956FA9
:100BB000000143DE060E0301946F120E956F0001D3
:100BC0003CDE070E0301946F0C0E956F000135DEBD
:100BD0000A0E0301946FEE0E956F00012EDE0B0ED0
:100BE0000301946F050E956F000127DE030E0301CC
:100BF000926F040E916F00014DDE040E0301946F9D
:100C000021C095F3000119DE050E0301946F22C087
:100C100095F3000112DE020E0301946F23C095F3D9
:100C200000010BDE030E0301946F24C095F3000155
:100C300004DE0301946B25C095F30001FEDD010E77
:100C40000301946F26C095F30001F7DD120E030136
:100C50008E6F0001D3DD01C05CF0100E0201E56F64
:100C6000010EE76FE66B000147DE140E0201E56F2F
:100C7000040EE76F720EE66F00013EDE0201E16BCB
:100C80000001D1D61F0E0301966F040E976F00016D
:100C9000F2DD3EEF08F05B92646965696669676939
:100CA000686969696D6B6C6B6B6B6A6B3FEF08F021
:100CB000E6C251F0E5C250F0E4C24FF0E3C24EF09C
:100CC00072EF07F00301486B496B010E4A6FDA6A55
:100CD000D96A030E4D6F400E4C6F030EEA6E440E40
:100CE000E96E4DC3E2FF4CC3E1FF4AC34BF3D8901A
:100CF000E550EE02F3504823F45049234B2FF7D729
:100D000048C3DEFF49C348F3496BD8B0492B4C2B8D
:100D1000D8B44D2B4A2B4A510508DFE100011200DF
:100D2000016A026A006A036A0201E95102E1E851BC
:100D300018E0100EEA6FD890E637E7370036033632
:100D4000E951035C02E1E851005C07E3E851005E11
:100D5000D8A00306E951035ED88001360236EA2F97
:100D6000EAD70001E7EF06F051C043F350C042F369
:100D70004FC041F34EC040F3410E0301476FC60E12
:100D8000466F4E0E456F6D0E446F00019BDF390EAE
:100D9000020100244E6E300E01204F6E000E022024
:100DA000506E000E0320516E50C000F051C001F093
:100DB000026A036A51C0E5F250C0E4F251C0E7F2A2
:100DC00050C0E6F27F0EE96FE8690001A9D700C0C4
:100DD00001F003C002F073EF07F00201E06BE05195
:100DE000040866E3E051240DF350036A880F016E96
:100DF000000E032201C0E1F203C0E2F2E1C2E9FF0A
:100E0000E2C2EAFF0A0EEF6E230EE125E96E000E44
:100E1000E221EA6EEF90230EE125E96E000EE22159
:100E2000EA6EEF82230EE125E96E000EE221EA6E02
:100E3000EF84230EE125E96E000EE221EA6EEF98C1
:100E4000230EE125E96E000EE221EA6EEF960F0E09
:100E5000E125E96E000EE221EA6EEF3C01D013D0ED
:100E60000F0EE125E96E000EE221EA6EEFCF33F3BB
:100E7000000102EC00F00F0E0201E125E96E000E08
:100E8000E221EA6EEF68210EE125E96E000EE22113
:100E9000EA6EEC6AED521E0EEF6E100EE125E96E61
:100EA000000EE221EA6EEC6AED52EF6AE02B97D772
:100EB000D65000016227D7506323CE506227CF500F
:100EC0006323CC506227000E6323B2506227B350D5
:100ED00063230201E66BE56B63C0E4F262C0E3F2F8
:100EE0000001E6D641D702C061F001C060F0040EF7
:100EF0006127615112080AE2FF0A03E16051870885
:100F000005E2880E605F130E615BF3D76151030841
:100F100002E3040E612740EF08F00201E56BE551A2
:100F200004086CE3E551240DF350036A880F016E49
:100F3000000E032201C0E6F203C0E7F2E6C2E9FFB9
:100F4000E7C2EAFFEF500A0857E1E6C2E9FFE7C24D
:100F5000EAFFEF6A0B0EE625E96E000EE721EA6E66
:100F6000E4C2ECFFED52E3C2EFFF0D0EE625E96EA1
:100F7000000EE721EA6EEC6AED52EF6A070EE625F5
:100F8000E96E000EE721EA6EEF6AEC6AEC6AEC6A41
:100F9000230EE625E96E000EE721EA6EEF80230EB0
:100FA000E625E96E000EE721EA6EEF960F0EE625C4
:100FB000E96E000EE721EA6EEF3C01D013D00F0E70
:100FC000E625E96E000EE721EA6EEFCF33F300016C
:100FD00002EC00F00F0E0201E625E96E000EE7219B
:100FE000EA6EEF68230EE625E96E000EE721EA6E51
:100FF000EF82E5C201F004D0E52B91D7FE0E016E21
:10100000000116EF08F00201E06BE0532EE1036AE5
:10101000E0516E0F016E000E032201C0E1F203C029
:10102000E2F2E46B500EE36F000177D7E2C2EAFF11
:10103000E1C2E9FF01C0EFFF036A0201E0516E0F58
:10104000E96E000E0320EA6EEF50FE080CE0D89027
:10105000E035036A6F0FE96E000E0320EA6E010EA1
:10106000EC6EED52EF6EE02BD0D7000141EF08F0AF
:1010700002017D6B0001DDEF03F026D50CD6ADD665
:10108000C2D7B9EF37F00900F6CFE1F2F7CFE2F2BD
:10109000F5CF0CF371EC03F0E1C2F6FFE2C2F7FF0B
:1010A0000201E02F01D002D00001EDD70001C3EF13
:1010B00037F003012451016A235D03E223C300F0EA
:1010C0000CD0006A080E256F233700362451005CCF
:1010D000D8B0006E0136252FF7D70001120001505D
:1010E000E0C223F3640E0301246F0001E2DF00C0BD
:1010F000E0F20150300E08E10201E1A30FD0E1B7A8
:101100000DD0E1B9200E04D00201E197E199E1810F
:10111000012601C00CF3000171EC03F0E0C223F3DF
:101120000A0E0301246F0001C4DF00C0E0F2015089
:10113000300E08E10201E1B70BD0E1A109D0E1B91D
:10114000200E0001012601C00CF371EC03F0020136
:10115000300EE027E0C20CF3000171EC03F0120046
:101160005BA001D032D05B80010E575C0301326F6F
:10117000000E5858336F33511A0809E2FF0A03E191
:101180003251F70804E21B0E336FF70E326F1E0E5A
:10119000966F400E976F00013BEC04F00301926BD9
:1011A0000C0E916F00014AEC04F00C0E0301946FD9
:1011B00032C395F300011DEC04F00D0E0301946F92
:1011C00033C395F300011DEC04F012000301826BA0
:1011D000816B93948A943A0E996F0001F6EC03F0B8
:1011E00003018251805D1AE303E17F51815D16E2C4
:1011F0007EC384F37DC383F3996B0001F6EC03F0A7
:1012000084C3EAFF83C3E9FF01C0EFFF03017D2B25
:10121000D8B47E2B812BD8B4822BE3D793948A84C5
:1012200081C301F082C302F0000112008FC390F36A
:101230008EC391F3030190C301F091C302F000014A
:101240001200010E0301926F190E916F00014AEC1A
:1012500004F0190E03018E6F0001FEEC03F001C0D3
:10126000FEF20201FE5303E1000E016E89D05BB075
:1012700006D0000175DF000E016E020181D058C05A
:101280005AF057C059F00301926B916B00014AEC80
:1012900004F00301946B57C095F300011DEC04F0BA
:1012A000010E0301946F58C095F300011DEC04F08A
:1012B000020E0201FF6FEA0EFE6FFFC27EF3E8CF5F
:1012C0007DF30301806B140E7F6F00017FDFFDC291
:1012D0008FF3FCC28EF3AADF02C0FDF201C0FCF264
:1012E0000201EB511A0805E2FF0A19E1EA51F70879
:1012F00016E3020EFF6FEA0EE96EFFC2EAFFEFB0DF
:101300000ED0EFBF0CD0EEB90AD0ED51040805E2C3
:10131000FF0A05E1EC51EE0802E3EEBF01D0FF0049
:10132000EBC258F0EAC257F0E6C201F0E7C203F0A0
:1013300001C0FEF203C0FFF203C0EAFF01C0E9FFF3
:10134000020EE26EF60EE16E060E016EE6CFEEFFC5
:10135000012EFCD7E9C2EAFFE8C2E9FFEF68FD51C0
:1013600008080BE1FC5303E0FC51060806E1E9C262
:10137000EAFFE8C2E9FFFCC2EFFF5B90010E016EDD
:10138000000149EF36F011C301F012C314F301C09C
:1013900013F311C3E9FF12C3EAFFECCF8FF3ED5251
:1013A000EFCF8EF3000142DF14C3EAFF13C3E9FF5E
:1013B00002C0ECFFED5201C0EFFF020E0301112548
:1013C000016E000E1221036E01C013F3146F020EA2
:1013D0001125E96E000E1221EA6EECCF8FF3ED526B
:1013E000EFCF8EF3000122DF14C3EAFF13C3E9FF3E
:1013F00002C0ECFFED5201C0EFFF060E0301112504
:10140000016E000E1221036E01C013F3146F060E5D
:101410001125E96E000E1221EA6EECCF8FF3ED522A
:10142000EFCF8EF3000102DF14C3EAFF13C3E9FF1D
:1014300002C0ECFFED5201C0EFFF1200020E0301EB
:101440007E6FF50E7D6F806B1C0E7F6F0001BEDE20
:1014500087DE020E0301126FF50E116F000193DF9C
:101460000201F52D08D0F65306E1F951060803E113
:10147000FA51040803E0000E016E51D0FB5102083E
:1014800008E1FC5306E1F4C2EAFFF3C2E9FFEF6AA8
:1014900014D0FB2D09D0FC5307E1F4C2EAFFF3C2DC
:1014A000E9FF010EEF6E09D0F4C2EAFFF3C2E9FFD3
:1014B000020EEF6E000E016E32D01D5003010D5D65
:1014C0002BE11E500E5D28E11F500F5D25E12050DD
:1014D000105D22E10201F1C2E9FFF2C2EAFF020E51
:1014E000E26EFD0EE16E060E016EE6CFEEFF012EFE
:1014F000FCD7060EF125E96E000EF221EA6E03C359
:10150000EFFF04C3ECFF05C3ECFF06C3ECFF010EC5
:10151000016E05D004D00301000E016E020100012E
:101520006FEF0DF01F0E03018E6F0001FEEC03F054
:1015300001C070F3000E030101B6010E000A02E1C2
:10154000000E01D0FF0E016E0001120088C352F0A0
:10155000070E030189271C0E8A23926B020E916FDE
:1015600000014AEC04F0030E03018C6F890E8B6FAF
:10157000E96E8CC3EAFFEFCF95F3946B00011DEC8D
:1015800004F0030E03018C6F890E8B6F010E8B2507
:10159000E96E000E8C21EA6EEFCF95F3010E946F89
:1015A00000011DEC04F0030E03018C6F890E8B6F9C
:1015B000E96E8CC3EAFFEFCF95F3020E946F000142
:1015C0001DEC04F0030E03018C6F890E8B6F010E6E
:1015D0008B25E96E000E8C21EA6EEFCF95F3030E9A
:1015E000946F00011DEC04F0120093948A947A0E1B
:1015F0000301996F0001F6EC03F092C399F3F6EC46
:1016000003F093948A84120093948A947A0E0301CF
:10161000996F0001F6EC03F0030196C303F09551B6
:10162000D8B49607950703100EE094C3EAFF93C35E
:10163000E9FFEFCF99F30001F6EC03F00301932BE0
:10164000D8B4942BEAD793948A8400011200030142
:10165000926B020E916F00014AEC04F0020E03013E
:10166000946FF80E956F00011DEC04F0030E03015A
:10167000946F1B0E956F00011DEC04F0060E030124
:101680008F271C0E9023030E926F8F0E916FE96EC1
:1016900092C3EAFFEFCF95F3060E946F00011DECA5
:1016A00004F0030E0301926F8F0E916F010E9125CE
:1016B000E96E000E9221EA6EEFCF95F3070E946F5C
:1016C00000011DEC04F00301926B00018EDF8DC35D
:1016D00094F38CC393F30301966B060E956F000190
:1016E00093DF0301210E916F946B936F966B060E3F
:1016F000956F000189DF080E0301926F000175DF0D
:1017000003018E5302E1000E01D0060E916F926F1D
:1017100000016BDF12001C0E03018E6F0001FEEC56
:1017200003F001C07BF3000E030101B2010E000AB9
:1017300010E01F0E966F800E976F00013BEC04F0D7
:101740001F0E0301936F800E946F00012CEC04F0C8
:1017500003011C0E936F0A0E946F00012CEC04F031
:101760001F0E0301966F080E976F00013BEC04F00B
:101770005C500508D8A4E2D01C0E03018E6F000156
:10178000FEEC03F001C07BF3030101500A0BD8A467
:1017900002D00001F1D71C0E8E6F0001FEEC03F0A9
:1017A00001C07BF3000E030101B2010E000AD8B4A0
:1017B000C6D01F0E936F080E946F00012CEC04F03E
:1017C0000301926B916B00014AEC04F003018E6BF4
:1017D0000001FEEC03F001C06FF3010E03018E6FF8
:1017E0000001FEEC03F001C070F3060E03018E6FE2
:1017F0000001FEEC03F001C071F3070E03018E6FD0
:101800000001FEEC03F001C072F30301712BD8B4A8
:10181000722B946B71C395F300011DEC04F0010E63
:101820000301946F72C395F300011DEC04F0030EE5
:1018300003017C6F730E7B6F7CC37EF37D6F806BC7
:10184000070E7F6F0001C2DC03017A6B7A510F082B
:1018500067E31C0E8E6F0001FEEC03F001C07BF30A
:10186000000E030101B2010E000A55E076AB53D021
:101870001F0E966F800E976F00013BEC04F01F0E59
:101880000301936F800E946F00012CEC04F01C0E8A
:101890000301936F0A0E946F00012CEC04F01F0EED
:1018A0000301966F080E976F00013BEC04F01C0ECD
:1018B00003018E6F0001FEEC03F001C07BF3030116
:1018C00001500A0BD8A402D00001F1D71F0E936F6C
:1018D000080E946F00012CEC04F00301946B71C3AB
:1018E00095F300011DEC04F0010E0301946F72C327
:1018F00095F300011DEC04F0030E03017C6F730EE1
:101900007B6F7CC37EF37D6F806B070E7F6F000162
:101910005DDC03D0030104D0000103017A2B96D7CC
:10192000946B6FC395F300011DEC04F0010E0301ED
:10193000946F70C395F300011DEC04F003010001E6
:101940001200010E03016F6F0001ECDD01C010F306
:101950000301103D03D0000E016EADD010C388F31B
:101960008A6B896B0001F2DD0201F56B010EF46FE9
:10197000080EF76FF66B060EF86F040EF96FF32D75
:101980000CD0FB6B010EFA6F030106690769086949
:1019900009690A690B6912D00201FB6B020EFA6F2A
:1019A000F1C2E1FFF2C2E2FF030EEA6E060EE96E3B
:1019B000016EE6CFEEFF012EFCD70301020EEA6EA8
:1019C000FC0EE96EE26A210EE16E060E016EE6CFB4
:1019D000EEFF012EFCD720C005F31FC004F31EC08C
:1019E00003F31DC002F3060E0201F125E96E000E9D
:1019F000F221EA6EEFCF00F0ECCF01F0ECCF02F075
:101A0000ECCF03F0005003010219116F01500319CC
:101A1000126F02500419136F03500519146F1151FE
:101A20002714006E12512814016E13512914026EEE
:101A300014512A14036E005206E1015204E10252CD
:101A400002E1035209E02EC00FF32DC00EF32CC0AB
:101A50000DF32BC00CF310D0060E0201F125E96E38
:101A6000000EF221EA6EEFCF0CF3ECCF0DF3ECCFCA
:101A70000EF3ECCF0FF30301020E126FF40E116F91
:101A8000000181DC030E03018D6F060E8C6F8E6FDB
:101A9000906B1C0E8F6F0001DADD020E0301946F54
:101AA000F40E936F966B1C0E956F0001ADDD33DE67
:101AB000010E016E030100019AEF0DF0000E5BB202
:101AC000010E000A01E02ED0020E0201F26FE60EB6
:101AD000F16F020EF46FF00EF36F0001AFD40152FC
:101AE00001E12FD0B0EC08F00201F05319E1EA6AED
:101AF000640EE96E020EE26EE60EE16E060E016EF7
:101B0000E6CFEEFF012EFCD7EFC26DF0EEC26CF017
:101B1000EDC26BF0ECC26AF0000113D003D00201F9
:101B20005B820001020E0201F26FE60EF16FF36BB1
:101B3000000107D7015202E05B9203D0000E016E54
:101B400002D0010E016E62EF36F0140E592403012B
:101B5000456F000E5A20466F3F514525436F405157
:101B60004621446F44511A0809E2FF0A03E1435138
:101B7000F70804E2F80E435F1B0E445B926B100EF5
:101B8000916F00014AEC04F0100E0301946F43C3FF
:101B900095F300011DEC04F0110E0301946F44C392
:101BA00095F300011DEC04F0010E0301415D006E90
:101BB000000E4259036E0050432703504423445102
:101BC0001A0809E2FF0A03E14351F70804E2F80E9C
:101BD000435F1B0E445B120E946F43C395F30001E9
:101BE0001DEC04F0130E0301946F44C395F3000140
:101BF0001DEC04F01F0E0301966F300E976F00016D
:101C00003BEC04F01F0E03018E6F0001FEEC03F0AD
:101C100001C045F3000E030101BA010E000AD8B459
:101C200002D00001EFD7160E8E6F0001FEEC03F01C
:101C300001C044F3170E03018E6F0001FEEC03F0A8
:101C400001C043F3030143C301F044C302F00001A8
:101C50001200140E592403011B6F000E5A201C6F32
:101C600017511B25196F18511C211A6F1A511A0888
:101C700009E2FF0A03E11951F70804E2F80E195FBF
:101C80001B0E1A5B926B916B00014AEC04F003018E
:101C9000946B19C395F300011DEC04F0010E0301D0
:101CA000946F1AC395F300011DEC04F0020E0301BA
:101CB000946F19C395F300011DEC04F0030E0301AA
:101CC000946F1AC395F300011DEC04F01200020E8C
:101CD00003018825016E000E8921036E01C08AF37D
:101CE0008B6F020E8825E96E000E8921EA6EECCF1B
:101CF0008FF3ED52EFCF8EF3000116EC09F08BC39A
:101D0000EAFF8AC3E9FF02C0ECFFED5201C0EFFF1A
:101D1000040E03018825016E000E8921036E01C0A7
:101D20008AF38B6F040E8825E96E000E8921EA6E16
:101D3000ECCF8FF3ED52EFCF8EF3000116EC09F0EC
:101D40008BC3EAFF8AC3E9FF02C0ECFFED5201C07A
:101D5000EFFF0A0E03018825016E000E8921036E34
:101D600001C08AF38B6F0A0E8825E96E000E892167
:101D7000EA6EECCF8FF3ED52EFCF8EF3000116EC4D
:101D800009F08BC3EAFF8AC3E9FF02C0ECFFED5202
:101D900001C0EFFF1200020E0301056FF00E046F89
:101DA00005C37EF37D6F806B140E7F6F0001E6EC40
:101DB00008F00201F051F00B400803E0000E016E44
:101DC0005AD0F0510F0B006E00345F6E5F36FC0E80
:101DD0005F160301406B3F6B426B5FC041F3000134
:101DE000B4DE02C0EFF201C0EEF20301186B5FC077
:101DF00017F300012EDF0201EE51EF1103E0000E98
:101E0000016E39D0020E0301896FF00E886F000158
:101E10005EDF0201E651E7110CE0E6C2E9FFE7C22E
:101E2000EAFF00C3EFFF01C3ECFF02C3ECFF03C3F3
:101E3000ECFF060EE825E96E000EE921EA6EFCC211
:101E4000EFFFFDC2ECFFFEC2ECFFFFC2ECFFEBC2F6
:101E5000EAFFEAC2E9FFF9C2EFFFEDC2EAFFECC216
:101E6000E9FF5F50F25D006E000EF35900C0EFFF16
:101E7000EC6E010E016E00017DEF36F00301806B08
:101E80007F6B7E6B7D6BD8907431766F7331756F1D
:101E900072C378F371C377F376C303F07551D8B486
:101EA00076077507031013E078C3EAFF77C3E9FFED
:101EB000020E7727D8B0782BECCF03F0ED52EF501D
:101EC0007D2703507E23000E7F238023E5D77351A7
:101ED000010B006E036A005003100AE078C3EAFFAA
:101EE00077C3E9FFEF507D27000E7E237F238023F9
:101EF00080C37CF37FC37BF37EC37AF37DC379F326
:101F00007CC376F37BC375F3755302E1765323E00C
:101F1000806B7F6B846B836B7EC382F37DC381F3A5
:101F200075C300F076C301F0026A036A00507D2594
:101F30007D6F01507E217E6F025083217F6F0350A1
:101F40008421806F80C37CF37FC37BF37EC37AF3ED
:101F50007DC379F3D5D77EC303F0031E7D51FF0AFD
:101F6000016E03C002F00001120093948A943A0EAD
:101F70000301996F0001F6EC03F00301996B000176
:101F8000F6EC03F001C073F393948A84030173C3E6
:101F900001F00001120003016F5307E1705305E1E6
:101FA000FF0E016E026EA1D017D06F2D15D07053A9
:101FB00013E10001DADF0301746B01C073F301C0A8
:101FC00003F0000E006A0006001AFF0E031A00C09C
:101FD00001F003C002F089D0926B916B00014AECD2
:101FE00004F003018E6B0001FEEC03F001C071F3FD
:101FF000010E03018E6F0001FEEC03F001C072F3CD
:10200000100E0301946F71C395F300011DEC04F0F1
:10201000110E0301946F72C395F300011DEC04F0DF
:10202000030172511B081BE303E17151F70817E329
:10203000010E6F5D006E000E7059036E0050712727
:102040000350722372511A0809E2FF0A03E1715129
:10205000F70804E2F80E715F1B0E725B0AD0010EE6
:102060006F5D006E000E7059036E005071270350B3
:102070007223120E946F71C395F300011DEC04F0EE
:10208000130E0301946F72C395F300011DEC04F06D
:102090001F0E0301966F300E976F00013BEC04F0AA
:1020A0001F0E03018E6F0001FEEC03F001C073F3FD
:1020B000000E030101BA010E000AD8B402D00001DB
:1020C000EFD7160E8E6F0001FEEC03F001C071F326
:1020D000170E03018E6F0001FEEC03F001C072F3D6
:1020E000030171C301F072C302F0000112005F50DE
:1020F00003011325156F000E1421166F186F15C3F9
:1021000017F30001A6DD12007AC37BF379C37CF3D9
:1021100078C37DF377C37EF37BC300F07CC301F00B
:102120007DC302F07EC303F012006FC301F070C3E1
:1021300072F301C071F36FC3E9FF70C3EAFFECCF24
:102140008FF3ED52EFCF8EF3000116EC09F072C35E
:10215000EAFF71C3E9FF02C0ECFFED5201C0EFFFDF
:10216000020E03016F25016E000E7021036E01C087
:1021700071F3726F020E6F25E96E000E7021EA6E28
:10218000ECCF8FF3ED52EFCF8EF3000116EC09F098
:1021900072C3EAFF71C3E9FF02C0ECFFED5201C058
:1021A000EFFF040E03016F25016E000E7021036E18
:1021B00001C071F3726F040E6F25E96E000E70217D
:1021C000EA6EEFCF77F3ECCF78F3ECCF79F3ECCF87
:1021D0007AF3000199DF72C3EAFF71C3E9FF00C01F
:1021E000EFFF01C0ECFF02C0ECFF03C0ECFF080EE4
:1021F00003016F25016E000E7021036E01C071F3A3
:10220000726F080E6F25E96E000E7021EA6EEFCF37
:1022100077F3ECCF78F3ECCF79F3ECCF7AF30001DE
:1022200073DF72C3EAFF71C3E9FF00C0EFFF01C0B3
:10223000ECFF02C0ECFF03C0ECFF0E0E03016F25A4
:10224000016E000E7021036E01C071F3726F0E0EED
:102250006F25E96E000E7021EA6EECCF8FF3ED5220
:10226000EFCF8EF3000116EC09F072C3EAFF71C3E1
:10227000E9FF02C0ECFFED5201C0EFFF100E0301B9
:102280006F25016E000E7021036E01C071F3726F35
:10229000100E6F25E96E000E7021EA6EECCF8FF301
:1022A000ED52EFCF8EF3000116EC09F072C3EAFF96
:1022B00071C3E9FF02C0ECFFED5201C0EFFF120E47
:1022C00003016F25016E000E7021036E01C071F3D2
:1022D000726F120E6F25E96E000E7021EA6EECCF60
:1022E0008FF3ED52EFCF8EF3000116EC09F072C3BD
:1022F000EAFF71C3E9FF02C0ECFFED5201C0EFFF3E
:102300001200FE0E0301196F186B18510408D8A0B3
:102310007AD01851240DF350036A880F016E000E15
:10232000032201C016F303C017F316C3E9FF17C356
:10233000EAFFEF500A0865E00B0E1625E96E000E65
:102340001721EA6EECCF1BF3ED52EFCF1AF3020E1A
:102350001225E96E000E1321EA6EECCF03F0ED5268
:10236000EF501A5D4EE103501B5D4BE116C3E9FFD0
:1023700017C3EAFFEF5202E118C319F30D0E162539
:10238000E96E000E1721EA6EECCF1BF3ED52EFCF92
:102390001AF312C3E9FF13C3EAFFECCF03F0ED52C7
:1023A000EF501A5D2EE103501B5D2BE1070E162541
:1023B000E96E000E1721EA6EEFCF1AF3ECCF1BF394
:1023C000ECCF1CF3ECCF1DF3060E1425E96E000EC6
:1023D0001521EA6EEFCF00F0ECCF01F0ECCF02F068
:1023E000ECCF03F000501A5D0CE101501B5D09E1D8
:1023F00002501C5D06E103501D5D03E118C301F0AE
:102400006CD0182B82D71951FE0803E1FE0E016E25
:1024100064D01951240DF350036A880F016E000E29
:10242000032201C016F303C017F3010E1625016E37
:10243000000E1721036E01C01AF31B6FEA6E01C074
:10244000E9FF15C3E2FF14C3E1FF0A0E016EE6CFF8
:10245000EEFF012EFCD70D0E1625016E000E172182
:1024600012C3E9FF13C3EAFFECCF03F0ED52EFCF45
:102470001CF3EA6E01C0E9FF03C0ECFFED521CC380
:10248000EFFF230E1625E96E000E1721EA6EEF9678
:102490000F0E1625E96E000E1721EA6EEF3C01D0F3
:1024A00013D00F0E1625E96E000E1721EA6EEFCF3E
:1024B00033F3000102EC00F00F0E03011625E96E64
:1024C000000E1721EA6EEF68230E1625E96E000E46
:1024D0001721EA6EEF8219C301F0000153EF1BF0E0
:1024E000F29A54C033F353C032F3F28A030132C379
:1024F00001F033C302F0000112000F0E030130257A
:10250000E96E000E3121EA6EEF3C01D01AD00F0EB9
:102510003025E96E000E3121EA6EEFCF33F3000172
:1025200002EC00F00F0E03013025E96E000E3121A0
:10253000EA6EEF68230E3025E96E000E3121EA6E57
:10254000EF82070E3025E96E000E3121EA6EEF6A48
:10255000EC6AEC6AEC6A0D0E3025E96E000E312152
:10256000EA6EEC6AED52EF6A230E3025E96E000E3A
:102570003121EA6EEFA604D00001B0EC08F00301AF
:10258000230E3025E96E000E3121EA6EEF96210E02
:102590003025E96E000E3121EA6EEC6AED521E0E16
:1025A000EF6E230E3025E96E000E3121EA6EEF98B2
:1025B000230E3025E96E000E3121EA6EEFA006D021
:1025C00030C3E9FF31C3EAFFEF6A06D030C3E9FF49
:1025D00031C3EAFF0A0EEF6E100E3025E96E000ED1
:1025E0003121EA6EEC6AED52EF6A000112001F0E13
:1025F00003018E6F0001FEEC03F001C070F3000ECA
:10260000030101B6010E000A02E0000E01D0010E26
:10261000016E00011200010E0301926F190E916FFD
:1026200000014AEC04F0190E03018E6F0001FEEC6C
:1026300003F001C06FF30301926B0E0E916F000166
:102640004AEC04F00E0E03018E6F0001FEEC03F065
:1026500001C071F30F0E03018E6F0001FEEC03F059
:1026600001C072F3010E0301926F190E916F000108
:102670004AEC04F0190E03018E6F0001FEEC03F02A
:1026800001C073F303016F51015CD8B402D00001A3
:10269000CAD7926B0C0E916F00014AEC04F00C0E3D
:1026A00003018E6F0001FEEC03F001C06FF30D0E0D
:1026B00003018E6F0001FEEC03F001C070F3030113
:1026C0007051725D16E303E171516F5D12E26F515B
:1026D000715D006E70517259036E0050FF0AF80F61
:1026E000006E1B0E035600C001F003C002F01CD0A8
:1026F0001BD06F51715D09E17051725D06E1F70EFB
:10270000016E1B0E026E10D00FD071516F5D736F92
:1027100072517059746F010E735D006E000E745922
:10272000036E00C001F0026E0001D3EF14F0060E3C
:10273000030188258E6F1C0E89218F6F010E8E2557
:102740008C6F000E8F218D6F926B100E916F0001B8
:102750004AEC04F0100E0301946F8CC395F3000152
:102760001DEC04F0110E0301946F8DC395F300016D
:102770001DEC04F0010E03018A5D006E000E8B5902
:10278000036E00508C2703508D23120E946F8CC360
:1027900095F300011DEC04F0130E0301946F8DC33B
:1027A00095F300011DEC04F01F0E0301966F300E2F
:1027B000976F00013BEC04F01F0E03018E6F0001C8
:1027C000FEEC03F001C08EF3000E030101BA010E0E
:1027D000000AD8B402D00001EFD7160E8E6F0001A8
:1027E000FEEC03F001C08DF3170E03018E6F0001A4
:1027F000FEEC03F001C08CF303018CC301F08DC328
:1028000002F000011200140E5F6E450E0301746F9A
:10281000756B140E7225766F000E7321776F5D2A2B
:10282000D8B45E2A5EC079F35DC078F37B6B7A6BB7
:10283000640E7C6F71C37DF37F6B7E6B20C083F36E
:102840001FC082F31EC081F31DC080F3060E6F25EA
:10285000E96E000E7021EA6EEFCF84F3ECCF85F3C2
:10286000ECCF86F3ECCF87F3030E896F740E886F7D
:10287000000167EC0EF003016FC301F070C303F0B9
:1028800001C088F303C089F3140E72258A6F000E0D
:1028900073218B6F03C08DF301C08CF38E6B906F2F
:1028A0008AC38FF3000127EC0BF0030E0301896F3D
:1028B000740E886F89C394F3936F966B140E956FA3
:1028C000000104EC0BF00301896B886B8B6B140E19
:1028D0008A6F00012CDF02C07FF301C07EF352C07B
:1028E00088F303018A6B0A0E896F0001A6EC0AF0D7
:1028F000030E0301896F7E0E886F89C394F3936F73
:10290000966B020E956F000104EC0BF052C088F339
:1029100003018A6B140E896F0001A6EC0AF0000E09
:10292000016E026E1200010E03016F6F00015FDE87
:102930000152F9E00301463D08D0010E6F6F00011E
:1029400092EC0AF001C046F30301463D01D0FBD0F2
:1029500046C388F38A6B140E896F0001A6EC0AF057
:102960003AC34CF339C34BF33CC34EF33BC34DF373
:1029700040C352F33FC351F33EC350F33DC34FF343
:1029800044C356F343C355F342C354F341C353F313
:102990003F0E03015815586FF00E5715576F45C37A
:1029A00058F3000138D602C05AF301C059F30301AD
:1029B0005A5303E15951280805E2280E595F000EC9
:1029C0005A5B02D05A6B596B5C6B5B6B5E6B5D6BD9
:1029D000030E706F4B0E6F6F000195EC10F0140E2C
:1029E00003014727000E482345A30FD0040E4727B5
:1029F000000E4823020E5F6F040E606F616F626B02
:102A00000F0E57156009576F04D00F0E5715500958
:102A1000576F20C066F31FC065F31EC064F31DC06E
:102A200063F3060E3725E96E000E3821EA6EEFCF0C
:102A300067F3ECCF68F3ECCF69F3ECCF6AF36B6B21
:102A4000060E6C6F48C36EF347C36DF36EC38FF30E
:102A50006DC38EF3000116EC09F002C06EF301C0E5
:102A60006DF3030E0301706F630E6F6F70C372F32B
:102A7000716F746B0C0E736F00013EEC0FF001C0B0
:102A80005BF303015B1F02C05CF35C1F5CC34AF392
:102A90005BC349F338C370F337C36FF3060E716F2E
:102AA00048C373F347C372F30001ADDE030E0301A5
:102AB000706F4B0E6F6F70C394F3936F966B140E21
:102AC000956F000104EC0BF0030145A30ED0030E3B
:102AD000706F5F0E6F6F70C394F3936F966B040EFD
:102AE000956F000104EC0BF0030146C388F38A6B79
:102AF000140E896F0001A6EC0AF048C370F347C3B7
:102B00006FF3CBEC0FF002C04AF301C049F346C3A8
:102B100088F303018A6B240E896F0001A6EC0AF08A
:102B20004AC392F3F5EC0AF049C392F3F5EC0AF0CC
:102B300046C388F303018A6B896B0001A6EC0AF097
:102B40008BEC0BF003010001120003011251240D64
:102B5000F350036A880F016E000E032201C029F3AF
:102B600003C02AF32B6B1E0E2925E96E000E2A21C5
:102B7000EA6EEF6A1F0E2925016E000E2A21036EF0
:102B800001C030F3316F0001ABDC31C3EAFF30C369
:102B9000E9FF02C0ECFFED5201C0EFFF210E03017F
:102BA0002925E96E000E2A21EA6EEC6AED521E0E0E
:102BB000EF6E0D0E1525E96E000E1621EA6EEFA4DC
:102BC0001AD00001B0EC08F0030129C330F32AC386
:102BD00031F3230E2925E96E000E2A21EA6EEFA0BB
:102BE00002D0000E01D0010E31C3EAFF30C3E9FF6D
:102BF000EF6E9FEF1AF0160E2925E96E000E2A21BE
:102C0000EA6EEFCF1DF3ECCF1EF3ECCF1FF3ECCF4A
:102C100020F30E0E1525E96E000E1621EA6EECCF9C
:102C200031F3ED52EFCF30F3326B336B080E1525D5
:102C3000E96E000E1621EA6EEFCF00F0ECCF01F046
:102C4000ECCF02F0ECCF03F000501D5D006E0150A0
:102C50001E59016E02501F59026E03502059036E17
:102C60000050305F0150315B0250325B0350335BE8
:102C7000100E2925E96E000E2A21EA6EECCF03F032
:102C8000ED52EFCF00F003C001F0026A036A00507A
:102C9000305D2C6F015031592D6F025032592E6F1B
:102CA000035033592F6F2FAF0AD0140E2925E96E28
:102CB000000E2A21EA6EEC6AED52EF6A0AD0140E79
:102CC0002925E96E000E2A21EA6E19C3EFFF1AC307
:102CD000ECFF29C3E9FF2AC3EAFFEF2CB5D00D0EA4
:102CE0001525E96E000E1621EA6EEFB212D0000132
:102CF000B0EC08F00D0E03011525E96E000E16214B
:102D0000EA6EEFA804D0040E2B6F6BEF1AF09FEF62
:102D10001AF01A0E2925016E000E2A2101C030F387
:102D2000316F040E1525E96E000E1621EA6EEFCF05
:102D300032F3ECCF33F3ECCF34F3ECCF35F3175160
:102D4000322718513323000E34233523010E322548
:102D5000006E000E3321016E000E3421026E000E53
:102D6000352131C3EAFF30C3E9FF00C0EFFF01C0E6
:102D7000ECFF02C0ECFFEC6E1A0E2925E96E000E86
:102D80002A21EA6EEFCF19F3ECCF1AF3ECCF1BF345
:102D9000ECCF1CF30D0E1525E96E000E1621EA6E20
:102DA000EFB80DD029C3E9FF2AC3EAFF020EEF6E88
:102DB0000001B0EC08F0120E03012B6F8CD329C375
:102DC000E9FF2AC3EAFF030EEF6E100E2B6F140EFD
:102DD0002925016E000E2A21036E316F0E0E152576
:102DE000E96E000E1621EA6EECCF03F0ED52EFCF44
:102DF00032F331C3EAFF01C0E9FF03C0ECFFED523B
:102E000032C3EFFF175118111AE0230E2925E96E7E
:102E1000000E2A21EA6EEF86120E2925E96E000EB9
:102E20002A21EA6E18C3ECFFED5217C3EFFF230E01
:102E30002925E96E000E2A21EA6EEF8404D00001F4
:102E4000B0EC08F0030147D329C3E9FF2AC3EAFF26
:102E5000EF52D8A4B7D00001B0EC08F00D0E03017A
:102E60001525E96E000E1621EA6EEFB203D0040EAE
:102E70002B6F31D31A0E2925016E000E2A2101C0B5
:102E800030F3316F040E1525E96E000E1621EA6E3F
:102E9000EFCF32F3ECCF33F3ECCF34F3ECCF35F3A9
:102EA0001751322718513323000E34233523010ED6
:102EB0003225006E000E3321016E000E3421026EA9
:102EC000000E352131C3EAFF30C3E9FF00C0EFFF38
:102ED00001C0ECFF02C0ECFFEC6E140E2925016E60
:102EE000000E2A21036E316F0E0E1525E96E000EBD
:102EF0001621EA6EECCF03F0ED52EFCF32F331C37F
:102F0000EAFF01C0E9FF03C0ECFFED5232C3EFFF5F
:102F1000010E2925016E000E2A21036E01C030F337
:102F2000316FEA6E01C0E9FF14C3E2FF13C3E1FF92
:102F30000A0E016EE6CFEEFF012EFCD70D0E2925FD
:102F4000016E000E2A2115C3E9FF16C3EAFFECCF7C
:102F500003F0ED52EFCF32F3EA6E01C0E9FF03C098
:102F6000ECFFED5232C3EFFF29C3E9FF2AC3EAFFAA
:102F7000020EEF6E160E2925E96E000E2A21EA6E6A
:102F8000EE52EE52EE52EDCF20F3EDCF1FF3EDCF28
:102F90001EF3EFCF1DF3010EEE26000EEE22EE2201
:102FA000ED221A0E2925E96E000E2A21EA6EEFCFD6
:102FB00019F3ECCF1AF3ECCF1BF3ECCF1CF3120E8A
:102FC0002B6F89D21A0E2925E96E000E2A21EA6E8E
:102FD000EFCF21F3ECCF22F3ECCF23F3ECCF24F3AC
:102FE000160E2925E96E000E2A21EA6EEFCF25F391
:102FF000ECCF26F3ECCF27F3ECCF28F3040E152506
:10300000E96E000E1621EA6EEFCF19F3ECCF1AF33A
:10301000ECCF1BF3ECCF1CF317C300F018C301F087
:10302000026A036A0050192701501A2302501B2319
:1030300003501C23160E2925E96E000E2A21EA6E84
:10304000EFCF1DF3ECCF1EF3ECCF1FF3ECCF20F34B
:10305000040E1525E96E000E1621EA6EEFCF30F34F
:10306000ECCF31F3ECCF32F3ECCF33F32151305DC1
:10307000D8A423D22251315DD8A41FD22351325D6E
:10308000D8A41BD22451335DD8A417D229C3E9FF99
:103090002AC3EAFFEF50020843E10D0E1525E96E41
:1030A000000E1621EA6EEFA836D01A0E2925E96E19
:1030B000000E2A21EA6E19C3EFFF1AC3ECFF1BC3EF
:1030C000ECFF1CC3ECFF29C3E9FF2AC3EAFF030E90
:1030D000EF6E175118111AE0230E2925E96E000E24
:1030E0002A21EA6EEF86120E2925E96E000E2A21AA
:1030F000EA6E18C3ECFFED5217C3EFFF230E29252C
:10310000E96E000E2A21EA6EEF8404D00001B0ECD3
:1031100008F0030104D00001B0EC08F00301CCD1A9
:103120001A0E2925E96E000E2A21EA6E19C3EFFF57
:103130001AC3ECFF1BC3ECFF1CC3ECFF29C3E9FF60
:103140002AC3EAFFEF500308D8A4CFD00D0E1525EF
:10315000E96E000E1621EA6EEFA82BD0230E29256A
:10316000E96E000E2A21EA6EEFB223D00F0E292558
:10317000E96E000E2A21EA6EEF3C01D01AD00F0E44
:103180002925E96E000E2A21EA6EEFCF33F3000104
:1031900002EC00F00F0E03012925E96E000E2A2132
:1031A000EA6EEF68230E2925E96E000E2A21EA6EE9
:1031B000EF820D0E1525E96E000E1621EA6EEFA0C6
:1031C00048D0110E2B6F160E2925E96E000E2A210C
:1031D000EA6EEE52EE52EE52EDCF20F3EDCF1FF33A
:1031E000EDCF1EF3EFCF1DF3010EEE26000EEE2203
:1031F000EE22ED221A0E2925E96E000E2A21EA6E32
:10320000010EEF24006E000EEC20016E000EEC208B
:10321000026E000EEC20ED52ED52ED5200C0EFFFB9
:1032200001C0ECFF02C0ECFFEC6E1A0E2925E96E1E
:10323000000E2A21EA6EEFCF19F3ECCF1AF3ECCF90
:103240001BF3ECCF1CF329C3E9FF2AC3EAFF090EE5
:10325000EF6E1751181144E0230E2925E96E000E78
:103260002A21EA6EEFB61BD0230E2925E96E000E47
:103270002A21EA6EEF86120E2925E96E000E2A2118
:10328000EA6E18C3ECFFED5217C3EFFF230E29259A
:10329000E96E000E2A21EA6EEF842B8920D0160EEB
:1032A0002925E96E000E2A21EA6E25C3EFFF26C309
:1032B000ECFF27C3ECFF28C3ECFF1A0E2925E96EAB
:1032C000000E2A21EA6E21C3EFFF22C3ECFF23C3C5
:1032D000ECFF24C3ECFF0001B0EC08F0030104D0C4
:1032E0000001B0EC08F00301E7D029C3E9FF2AC3CD
:1032F000EAFFEF50090815E10001B0EC08F00D0EEF
:1033000003011525E96E000E1621EA6EEFA808D01C
:103310002AC331F329C330F300017DEC12F003011D
:10332000CBD029C3E9FF2AC3EAFFEF50040862E1CA
:103330000001B0EC08F00D0E03011525E96E000E3A
:103340001621EA6EEFA045D0100E2B6F1A0E29251C
:10335000E96E000E2A21EA6E010EEF24006E000EC7
:10336000EC20016E000EEC20026E000EEC20ED52FF
:10337000ED52ED5200C0EFFF01C0ECFF02C0ECFFC8
:10338000EC6E1A0E2925E96E000E2A21EA6EEFCFA7
:1033900019F3ECCF1AF3ECCF1BF3ECCF1CF30D0EAB
:1033A0001525E96E000E1621EA6EEFA809D02AC392
:1033B00031F329C330F300017DEC12F008D0030192
:1033C00029C3E9FF2AC3EAFF060EEF6E000110D001
:1033D00003010D0E1525E96E000E1621EA6EEFA809
:1033E00006D029C3E9FF2AC3EAFF050EEF6E0001EC
:1033F00062D0030129C3E9FF2AC3EAFFEF500508A1
:1034000040E10001B0EC08F00D0E03011525E96E56
:10341000000E1621EA6EEFA033D0100E2B6F1A0E9D
:103420002925E96E000E2A21EA6E010EEF24006EB6
:10343000000EEC20016E000EEC20026E000EEC205F
:10344000ED52ED52ED5200C0EFFF01C0ECFF02C0A3
:10345000ECFFEC6E1A0E2925E96E000E2A21EA6EA9
:10346000EFCF19F3ECCF1AF3ECCF1BF3ECCF1CF337
:103470002AC331F329C330F300017DEC12F00301BC
:103480001BD029C3E9FF2AC3EAFFEF50060814E165
:103490000001B0EC08F00D0E03011525E96E000ED9
:1034A0001621EA6EEFA808D02AC331F329C330F3FE
:1034B00000017DEC12F003010ED00001B0EC08F029
:1034C000100E03012B6F24C31CF323C31BF322C371
:1034D0001AF321C319F303012B5331E0020E152512
:1034E000E96E000E1621EA6EECCF3AF3ED52EFCF03
:1034F00039F315C3E9FF16C3EAFFECCF3CF3ED52F5
:10350000EFCF3BF314C338F313C337F320C340F3B7
:103510001FC33FF31EC33EF31DC33DF31CC344F35F
:103520001BC343F31AC342F319C341F32BC345F33F
:103530004669486B476B000193EC14F003010001EE
:103540006AEF1BF0060E0201E625E96E000EE72188
:10355000EA6EEFCF00F3ECCF01F3ECCF02F3ECCF48
:1035600003F3E9C2EAFFE8C2E9FFEFCF04F3ECCFCF
:1035700005F3ECCF06F3ECCF07F30301086B060E5F
:10358000096FEBC20BF3EAC20AF30BC38FF30AC352
:103590008EF3000116EC09F002C00BF301C00AF330
:1035A000030E0301136F726F716B746B0C0E736FEC
:1035B00000013EEC0FF001C00DF303010D1F02C02E
:1035C0000EF30E1FEBC270F3EAC26FF30001CBECF7
:1035D0000FF002C010F301C00FF3030110510D5D95
:1035E00003E10F510E5D07E00001B0EC08F0010EA1
:1035F000016E77D00301146B136B000177EC10F0B0
:10360000020E0301136FEC0E126F13C37EF37D6F76
:10361000806B140E7F6F0001E6EC08F0020E0301D0
:10362000706FEC0E6F6F000195EC10F0F8C200F0B7
:1036300000380F0B006E00360036FC0E00160050EE
:10364000EC0F0301116F11510201EA5D0301126FCA
:10365000000E0201EB590301136F140E125D0201FB
:10366000EA6F000E030113590201EB6FF8C200F07C
:1036700000380F0B006E00340301126F1237FC0E7E
:103680001217146B12C313F3000177EC10F0020E43
:103690000301136FEC0E126FE7C215F3E6C214F3C9
:1036A000000181EF11F001C00CF303010C51FE0881
:1036B00013E00CC312F3E7C214F3E6C213F3020ED5
:1036C000166FEC0E156FEBC218F3EAC217F3000188
:1036D000A5EF15F004D003010001B0EC08F0010ED5
:1036E000016EA9EF36F0040E03013E25016E000EB7
:1036F0003F21036E01C040F3416F040E3E25E96E89
:10370000000E3F21EA6EECCF8FF3ED52EFCF8EF338
:10371000000116EC09F041C3EAFF40C3E9FF02C013
:10372000ECFFED5201C0EFFF060E03013E25016ED6
:10373000000E3F21036E01C040F3416F060E3E258F
:10374000E96E000E3F21EA6EECCF8FF3ED52EFCF22
:103750008EF3000116EC09F041C3EAFF40C3E9FF14
:1037600002C0ECFFED5201C0EFFF020E03013E2547
:10377000016E000E3F21036E01C040F3416F020E47
:103780003E25E96E000E3F21EA6EECCF8FF3ED523D
:10379000EFCF8EF3000116EC09F041C3EAFF40C3FE
:1037A000E9FF02C0ECFFED5201C0EFFF1200020E74
:1037B00003013F6FF20E3E6F3FC37EF37D6F806B60
:1037C000080E7F6F0001E6EC08F003013D6B3C6BD7
:1037D000EDC2EAFFECC2E9FFEFCF41F30301406B1A
:1037E000140E3F6F426B0001A5EC0DF002C03BF3DD
:1037F00001C03AF3EDC2EAFF0201ECC2E9FF080E94
:10380000EF5CEF6EEDC2EAFFECC2E9FFEFCF7FF3B2
:10381000EBC27EF3EAC27DF30301806B0001E6ECAC
:1038200008F0020E03013F6FF20E3E6F00015BDFF6
:10383000E9C2EAFF0201E8C2E9FFF2C2EFFFEFC20C
:10384000EAFFEEC2E9FFF7C2ECFFED52F6C2EFFF6E
:10385000F1C2EAFFF0C2E9FFF9C2ECFFED52F8C293
:10386000EFFF03013C513A5D03E13D513B5D02E056
:10387000000E01D0010E016E0001D2EF36F0010EF4
:1038800003016F6F000192EC0AF001C03AF30301EB
:103890003A3D01D07ED03AC388F38A6B140E896F0B
:1038A0000001A6EC0AF0036A0201EB51080F0301C4
:1038B000386F000E0320396F0201F16BE8C2F0F29D
:1038C000F36BF26BEDC2F5F2ECC2F4F2EFC2F7F279
:1038D000EEC2F6F2020EEA6EF80EE96EEAC2E2FFFE
:1038E000E9C2E1FFEB51016E04E0E6CFEEFF012EED
:1038F000FCD7020E03013F6FF00E3E6F0001F3DEB6
:10390000080E0201EB2503013B6FE7C270F3E6C22C
:103910006FF3010E716F736B3BC372F3000103EC25
:1039200014F0020E03013C6FF00E3B6F3CC394F3A6
:10393000936F39C396F338C395F3000104EC0BF091
:103940000301896B140E886F39C38BF338C38AF374
:10395000000197EC13F002C0F3F201C0F2F23AC397
:1039600088F303018A6B160E896F0001A6EC0AF03A
:10397000020E03013C6FF20E3B6F3CC394F3936F56
:10398000966B020E956F000104EC0BF08BEC0BF0C4
:1039900003010001FFEF36F00201F16BE66BE65127
:1039A0000408D8A01DD2E651240DF350036A880FF5
:1039B000016E000E032201C0EBF203C0ECF2230EF5
:1039C000EB25E96E000EEC21EA6EEFB608D0230E6F
:1039D000EB25E96E000EEC21EA6EEFA801D0FED1D6
:1039E000EBC2E9FFECC2EAFFEF500A0811E0EBC2BC
:1039F000E9FFECC2EAFFEF520CE1230EEB25016E6A
:103A0000000EEC21036E01C0E9FFEA6EEFA001D0C9
:103A1000E5D1EBC2E9FFECC2EAFFEF5003080CE18D
:103A2000230EEB25016E000EEC21036E01C0E9FFB1
:103A3000EA6EEFA001D0D2D1000170EC12F002C00A
:103A4000EAF201C0E9F21F0E0201EB25E96E000E59
:103A5000EC21EA6EECCF03F0ED52EFCF01F0EA512A
:103A6000035C04E305E10150E95D02E3000E01D0CF
:103A7000010E036A03101BE01F0EEB25E96E000E1A
:103A8000EC21EA6EECCF03F0ED52EF50FF08F26F3D
:103A9000FF0E0354F36FE951F227EA51F323010EAD
:103AA000F225016E000EF321036E015010D01F0E9F
:103AB000EB25E96E000EEC21EA6EECCF03F0ED523F
:103AC000EF50E95D006E0350EA59036E0050E76F56
:103AD00003C0E8F2210EEB25E96E000EEC21EA6E40
:103AE000ECCF03F0ED52EFCF01F0E851035C05E3BA
:103AF00003E1E751015C01E371D1010E03016F6F36
:103B00000001F7EC12F0015201E16AD11F0E02012F
:103B1000EB25016E000EEC21036E01C0F2F2F36F93
:103B2000000170EC12F0F3C2EAFFF2C2E9FF02C03A
:103B3000ECFFED5201C0EFFF210E0201EB25E96E13
:103B4000000EEC21EA6ED890EF34026EEC34036E76
:103B50000250ED52EF6E03C0ECFF1E0EEB25E96E36
:103B6000000EEC21EA6EEF2AEBC2E9FFECC2EAFF9D
:103B7000010EEF5CF70FD8B0C4D0090F0001F3EFCE
:103B80001EF0020E0201F16FBCD01E0E0201EB25E9
:103B9000E96E000EEC21EA6EEF50030803E3120E0B
:103BA000F16F16D0230EEB25E96E000EEC21EA6EC4
:103BB000EFA006D0EBC2E9FFECC2EAFFEF6A08D043
:103BC000020EF16FEBC2E9FFECC2EAFF010EEF6EED
:103BD00098D01E0E0201EB25E96E000EEC21EA6E74
:103BE000EF50030820E30F0EEB25E96E000EEC21E9
:103BF000EA6EEF3C01D012D00F0EEB25E96E000EFD
:103C0000EC21EA6EEFCF88F303018A6B896B000128
:103C1000A6EC0AF08BEC0BF004D00201100EF16F51
:103C2000000126D002010F0EEB25E96E000EEC21FB
:103C3000EA6EEF3C01D013D00F0EEB25E96E000EBB
:103C4000EC21EA6EEFCF33F3000102EC00F00F0E2F
:103C50000201EB25E96E000EEC21EA6EEF68110E11
:103C6000F16FEBC2E9FFECC2EAFF040EEF6E000158
:103C7000020147D01E0E0201EB25E96E000EEC2179
:103C8000EA6EEF50030803E3010EF16F08D0ECC2B7
:103C900031F3EBC230F300017DEC12F0020131D0C0
:103CA000ECC231F3EBC230F37DEC12F0020129D00B
:103CB000ECC231F3EBC230F37DEC12F0020121D003
:103CC000010E0201F16FEBC2E9FFECC2EAFF090E3F
:103CD000EF6E17D01E0E0201EB25E96E000EEC21EF
:103CE000EA6EEF50030803E3010EF16F08D0ECC257
:103CF00031F3EBC230F300017DEC12F0020101D090
:103D00000201F1536BE0F1A90FD0160EEB25E96E1D
:103D1000000EEC21EA6EEFCFEDF2ECCFEEF2ECCF3D
:103D2000EFF2ECCFF0F217D0160EEB25E96E000E95
:103D3000EC21EA6EEE52EE52EE52EDCFF0F2EDCF04
:103D4000EFF2EDCFEEF2EFCFEDF2010EEE26000E28
:103D5000EE22EE22ED22010EEB25016E000EEC218B
:103D6000036E01C0F2F2F36F0B0EEB25E96E000E4D
:103D7000EC21EA6EECCF3AF3ED52EFCF39F30D0EB2
:103D8000EB25E96E000EEC21EA6EECCF3CF3ED5230
:103D9000EFCF3BF31A0EEB25E96E000EEC21EA6E35
:103DA000EFCF41F3ECCF42F3ECCF43F3ECCF44F34E
:103DB000F3C238F3F2C237F3F0C240F3EFC23FF37D
:103DC000EEC23EF3EDC23DF3F1C245F30301466995
:103DD000486B476B000193EC14F00201E62BDFD532
:103DE00000010AEF37F0E824F76AF736010FF66EA4
:103DF0003E0EF7220A00F550FA6E0800F550F96EF3
:103E0000823B8A3BD23B743CA03CA03CB03CC03CD3
:103E1000D43C0201EE51240DF350F06BEF6F880E8D
:103E2000EF25E96E000EF021EA6EEF50030802E084
:103E3000000E01D0010E016E000112000201EE51D0
:103E4000240DF350F06BEF6F230EEF27000EF023DD
:103E5000880EEF25E96E000EF021EA6E000EEFB637
:103E6000010E016E000112000201EE51240DF3500B
:103E7000036A880F016E000E032201C0F1F203C035
:103E8000F2F2230EF125E96E000EF221EA6EEFA6A2
:103E900050D0230EF125E96E000EF221EA6EEFA458
:103EA0000FD00301146B140E136F000177EC10F0A8
:103EB000230E0201F125E96E000EF221EA6EEF9465
:103EC000120EF125E96E000EF221EA6EECCFF4F24B
:103ED000ED52EFCFF3F2F35310E1F4530EE1000192
:103EE000B0EC08F0230E0201F125E96E000EF2217C
:103EF000EA6EEF96000E016E1ED0120EF125E96EED
:103F0000000EF221EA6EFF0EEF2602E2EE52ED06FF
:103F1000F0C2F4F2EFC2F3F20001B5EC0FF0F4C21C
:103F2000EAFFF3C2E9FF01C0EFFF010E016E0201DB
:103F300002D0000E016E00011200FBC2FFF2FAC2B5
:103F4000FEF2FFC2EAFF0201FEC2E9FFEF5233E0D8
:103F5000FDC201F3FCC200F301C3EAFF030100C389
:103F6000E9FFEF520CE10201FA51FE5D006EFB51D8
:103F7000FF59036E00C001F0026E26D00FD0FFC2C1
:103F8000EAFFFEC2E9FFEFCF02F301C3EAFF03013C
:103F900000C3E9FFEF50025D01E106D00301002BF1
:103FA000D8B4012B0201D8D70201FE2BD8B4FF2BC5
:103FB0000001C7D70201FA51FE5D006EFB51FF59A7
:103FC000036E00C001F0026E00015AEF20F0FBC248
:103FD000FFF2FAC2FEF2FFC2EAFF0201FEC2E9FFEF
:103FE000EF522EE0FDC201F3FCC200F301C3EAFF71
:103FF000030100C3E9FFEF521CE0FFC203F0FEC261
:10400000E9FF03C0EAFFEFCF02F301C3EAFF0301B8
:1040100000C3E9FFEF50025D07E10201FEC201F0BB
:10402000FFC202F010D00301002BD8B4012B020113
:10403000DDD70201FE2BD8B4FF2B0001CCD7020143
:10404000000E016E026E000173EF20F01EC320F31C
:104050001DC31FF320C3EAFF03011FC3E9FFEF5293
:1040600006E01F2BD8B4202B0001F4D703011D510B
:104070001F5D006E1E512059036E00C001F0026EDC
:10408000000112000201F251F31104E0F3C203F047
:10409000F25103D006C003F00550F66F03C0F7F2EB
:1040A000F7C2FBF2F6C2FAF2F5C2FDF2F4C2FCF27C
:1040B000000143D701500201F6270250F723F7C24F
:1040C000EAFFF6C2E9FFEF5204E1000E016E026E54
:1040D00031D0F7C2FBF2F6C2FAF2F5C2FDF2F4C239
:1040E000FCF2000174D702C0F9F201C0F8F202013B
:1040F000F85302E1F9530DE0F9C2EAFFF8C2E9FF13
:10410000EF6AF82BD8B4F92BF9C206F0F8C205F023
:104110000DD0F7C21EF3F6C21DF3000197DF015068
:104120000201F625056E0250F721066EF6C201F077
:10413000F7C202F000011200EFC2EAFF0201EEC274
:10414000E9FFEFCFF2F2F1C2EAFFF0C2E9FFEF5070
:10415000F25D17E1EFC203F0EEC2E9FF03C0EAFF30
:10416000EF5203E1000E016E21D0EFC203F0EE51D9
:10417000EE2BD8B4EF2BF02BD8B4F12B0001DCD709
:104180000201EFC203F0EEC2E9FF03C0EAFFEFCF86
:10419000F2F2F1C203F0F0C2E9FF03C0EAFFEF5010
:1041A000F25D02E2FF0E01D0010E016E000112006D
:1041B0003FC342F33EC344F33DC343F303014153C2
:1041C00003E14051000814E244C3EAFF43C3E9FF9E
:1041D0004251EF5C05E143C301F044C302F00BD050
:1041E000432BD8B4442B4051D8B441074007E7D7FC
:1041F000000E016E026E000112000301166B156BBA
:10420000300E186F310E196F320E1A6F330E1B6F8E
:10421000340E1C6F350E1D6F360E1E6F370E1F6F5E
:10422000380E206F390E216F610E226F620E236FE0
:10423000630E246F640E256F650E266F660E276F62
:10424000670E286F680E296F690E2A6F6A0E2B6F32
:104250006B0E2C6F6C0E2D6F6D0E2E6F6E0E2F6F02
:104260006F0E306F700E316F710E326F730E336FD1
:10427000740E346F750E356F760E366F770E376F9E
:10428000780E386F790E396F7A0E3A6F3B6B0BC32D
:1042900010F30AC30FF310C3EAFF0FC3E9FFEF5097
:1042A000200804E10F2BD8B4102BF5D710C303F06E
:1042B0000FC3E9FF03C0EAFFEF502D0807E010C36A
:1042C000EAFF0FC3E9FFEF502B0809E110C3EAFF33
:1042D0000F510F2BD8B4102BE96EEF5001D02B0EDD
:1042E000176F17512D081EE0036A0E51006EE8BECD
:1042F0000306016E03BE16D0036A0E51006EE8BEBF
:104300000306010802E103520DE0036A0E51006E3C
:10431000E8BE0306016E03BE07D0035203E101505D
:10432000240802E237D18ED00E5358E0036A0E51B2
:10433000006EE8BE030610081FE103521DE110C322
:10434000EAFF0FC3E9FFEF50300816E1010E0F2519
:10435000E96E000E1021EA6EEF50780809E0010EB8
:104360000F25E96E000E1021EA6EEF50580804E1A7
:10437000020E0F27000E1023036A0E51006EE8BED6
:10438000030608080DE103520BE110C3EAFF0FC357
:10439000E9FFEF50300804E1010E0F27000E102353
:1043A000036A0E51006EE8BE0306020816E10352CE
:1043B00014E110C3EAFF0FC3E9FFEF5030080DE12D
:1043C000010E0F25E96E000E1021EA6EEF50620813
:1043D00004E1020E0F27000E102334D010C3EAFFB1
:1043E0000FC3E9FFEF50300803E00A0E0E6F2AD02A
:1043F000010E0F25E96E000E1021EA6EEF507808CD
:1044000009E0010E0F25E96E000E1021EA6EEF5053
:10441000580807E1100E0E6F020E0F27000E102332
:1044200011D0010E0F25E96E000E1021EA6EEF503B
:10443000620806E1020E0E6F0F27000E102302D055
:10444000080E0E6F10C312F30FC311F310C3EAFF6F
:104450000FC3E9FFEF50300804E10F2BD8B4102B45
:10446000F5D710C303F00FC3E9FF03C0EAFFEFCF96
:104470003CF33C51400806E23C515A0803E33C51EE
:10448000200901D03C513C6F030E3E6F180E3D6F6A
:104490003CC33FF3416B0EC340F340BF41070001F3
:1044A00087DE02C014F301C013F30301135302E1CA
:1044B00014536AE0036A0E51E8BE0306006E03C09F
:1044C00001F0026A036A01AE02D00206030603C0CD
:1044D0003FF302C03EF301C03DF300C03CF3436B29
:1044E000426B16C341F315C340F303C047F302C048
:1044F00046F301C045F300C044F3000162EC06F04E
:1045000003C03FF302C03EF301C03DF300C03CF3E3
:10451000180E0301135D006E030E1459036E005054
:104520003C25006E03500120016E000E0220000E9B
:104530003F2101C016F300C015F30F2BD8B4102B88
:1045400010C3EAFF0FC3E9FFEFCF3CF33C51400833
:1045500006E23C515A0803E33C51200901D03C518A
:104560003C6F030E3E6F180E3D6F3CC33FF3416B33
:104570000EC340F340BF410700011ADE02C014F32E
:1045800001C013F392D703010F51115D14E11051D3
:10459000125D11E103010C510D1109E00DC3EAFF99
:1045A0000CC3E9FF0BC3ECFFED520AC3EFFF000E93
:1045B000016E026E10D00C510D1109E00DC3EAFF1F
:1045C0000CC3E9FF10C3ECFFED520FC3EFFF15C39F
:1045D00001F016C302F0000191EF23F00FC315F3B1
:1045E0000EC314F311C317F310C316F303011751CD
:1045F000155D3CE303E11451165D38E212511625B6
:10460000016E13511721036E1551035C2FE303E173
:104610000150145D2BE2125114271351152312512E
:10462000162713511723135303E1125100081DE2FB
:104630001451D8B41507140715C319F314C318F38C
:104640001651D8B41707160717C3EAFF16C3E9FFB8
:10465000EFCF1AF315C3EAFF14C3E9FF1AC3EFFF44
:104660001251D8B413071207DED720D0135303E139
:10467000125100081BE215C319F31451142BD8B4BE
:10468000152B186F17C3EAFF1651162BD8B4172B2A
:10469000E96EEFCF1AF319C3EAFF18C3E9FF1AC393
:1046A000EFFF1251D8B413071207E0D70EC301F081
:1046B0000FC302F00001C0EF23F00301076B02C338
:1046C00004F301C303F302C3EAFF01C3E9FFEFCF21
:1046D00008F308535CE008512B080AE102C3EAFF23
:1046E0000151012BD8B4022BE96E200EEF6E4DD094
:1046F0000851250847E1010E01250A6F000E02212D
:10470000E26E0AC3E1FFE6CF05F3E6CF06F3030E40
:104710000B6F050E0A6F0D6B0C6B100E0E6F000108
:104720006CD501C009F3030102C3EAFF0151012B5B
:10473000D8B4022BE96E09C3EFFF020E01250A6F00
:10474000000E02210B6F02C31EF301C31DF3000113
:104750007DDC02C00DF301C00CF3010E03010C5F00
:10476000000E0D5B02C30FF301C30EF30BC311F375
:104770000AC310F30DC313F30CC312F300012ED7B9
:1047800004D00301012BD8B4022B03019CD703C32F
:1047900001F004C302F0000112000BC3EAFF0301A1
:1047A0000AC3E9FFEFCF0EF30DC3EAFF0CC3E9FF25
:1047B000EF500E5D40E00BC3EAFF0AC3E9FFEFCF05
:1047C0000EF30E51400803E20E515A0806E20E5154
:1047D000600846E20E517A0843E30DC3EAFF0CC3BA
:1047E000E9FFEFCF0EF30E51400803E20E515A08D5
:1047F00006E20E51600834E20E517A0831E30BC331
:10480000EAFF0AC3E9FFEFCF0EF30DC3EAFF0CC3C3
:10481000E9FF200EEF240E5D0EE00DC3EAFF0CC38E
:10482000E9FFEFCF0EF30BC3EAFF0AC3E9FF200E47
:10483000EF240E5D15E10BC3EAFF0AC3E9FFEF5257
:1048400003E1000E016E21D00BC303F00A510A2BC5
:10485000D8B40B2B0C2BD8B40D2B00019ED7030121
:104860000BC303F00AC3E9FF03C0EAFFEFCF0EF367
:104870000DC303F00CC3E9FF03C0EAFFEF500E5D68
:1048800002E2FF0E01D0010E016E000112000201D2
:10489000F56BF46BF36BF26BF1C20BF3F0C20AF33E
:1048A000020E03010D6FCE0E0C6F000176DF0201C8
:1048B000F76B01C0F6F201BEF707F6530AE1F753B2
:1048C00008E1010E036EB80EF26F03C0F3F2F46B51
:1048D000F56BF2C200F0F3C201F0F4C202F0F5C2CF
:1048E00003F00001E7EF31F0EACFE2FFE9CFE1FFAB
:1048F000016A00800900F55000A005D0EE5C03E1DC
:10490000F552F8E10DD00090F552F4E1012A008053
:10491000E2CFEAFFE1CFE9FF0800F552EBE10168E1
:10492000CFEF25F003011751070B006E1731016E11
:10493000013201321F0E011601501925E96E000ED9
:104940001A21EA6E016A012A002A01D00136002EDE
:10495000FDD7185303E00150EF1203D0011E0150A0
:10496000EF160001120003011751070B006E1731FB
:10497000016E013201321F0E011601501825E96E39
:10498000000E1921EA6EEFCF01F0002A01D00132AA
:10499000002EFDD7010E01160001ECEF24F0030EEE
:1049A0000301185F0AE3030EEA6E180EE96EEF507A
:1049B00004E001D000D0EF2EFDD70001120003016A
:1049C000166B16513B0846E312C317F30F0E196F0F
:1049D000800E186F0001C7D7000E01A0010E12C390
:1049E00017F30301186F0F0E1A6F890E196F00016C
:1049F00099DF12C317F30301186B0F0E1A6F920E93
:104A0000196F00018FDF15C317F30301172B170769
:104A1000D8B405D018690001C2DF0301F8D714C368
:104A200018F30001BCDF12C317F30301186B0F0E5C
:104A30001A6F890E196F000175DF12C317F3030196
:104A4000186B0F0E1A6F920E196F00016BDF0301C6
:104A5000162BB7D7000112007C0E03010D6F100E4C
:104A60000C6F010E0F6F640E0E6F080E116F660E45
:104A7000106F0A51010A000105E0030A0AE0010A69
:104A80000FE014D07C0E03010D6F100E0C6F0001AF
:104A90000DD07C0E03010D6F110E0C6F000106D0BE
:104AA0007C0E03010D6F120E0C6F00010CC317F387
:104AB0000301186B0F0E1A6F890E196F000132DF98
:104AC0000CC317F30301186B0F0E1A6F920E196FB8
:104AD000000128DF03010B51000A000105E0010A73
:104AE0000DE0030A15E03BD00DC313F30CC312F322
:104AF0000FC315F30EC314F362DF31D00DC313F3EC
:104B00000CC312F311C315F310C314F358DF27D0ED
:104B10000DC313F30CC312F30FC315F30EC314F339
:104B20004EDF0DC313F30CC312F311C315F310C3FF
:104B300014F345DF040E0301126FFA0E136F000128
:104B40006FEC02F00301122FF8D70DC313F30CC35F
:104B500012F30FC315F30EC314F3000130DF12007C
:104B6000EF5210E0EACF0BF3E9CF0AF3EFCF0CF3EB
:104B700071EC03F00BC3EAFF0AC3E9FFE92AD8B4DA
:104B8000EA2AEED753EF26F00301096BB40EF66E56
:104B9000040EF76E08C3EAFF07C3E9FFA5D601506C
:104BA00005E0010A07E0030A0AE00DD00301096BE2
:104BB000000109D0010E0301096F000104D0020EAB
:104BC0000301096F000106C30BF305C30AF3020ECC
:104BD00003010D6FD00E0C6F0001DFDD03010B6BC5
:104BE00001C00AF301BE0B070A5309E10B5307E1A9
:104BF000010E0A6F09C30BF300012EDF030106C388
:104C00000BF305C30AF3020E0D6FD40E0C6F0001F7
:104C1000C4DD03010B6B01C00AF301BE0B070A538D
:104C200009E10B5307E1020E0A6F09C30BF3000100
:104C300013DF030106C30BF305C30AF3020E0D6F66
:104C4000D80E0C6F0001A9DD03010B6B01C00AF344
:104C500001BE0B070A5309E10B5307E1030E0A6F6C
:104C600009C30BF30001F8DE030106C30BF305C310
:104C70000AF3020E0D6FDC0E0C6F00018EDD0301D6
:104C80000B6B01C00AF301BE0B070A530DE10B5376
:104C90000BE10C0E0C6F000171EC03F008C3EAFF8E
:104CA00007C3E9FF5DD7030100018CEF26F0FBC2CB
:104CB000FDF2FAC2FCF20201FF6BFE6BFBC2EAFFDF
:104CC000FAC2E9FFEFCF00F303010051260802E02A
:104CD000005330E1FBC2EAFF0201FAC2E9FFEF6ACA
:104CE000FDC202F3FCC201F30001E7DCFFC202F3E4
:104CF000FEC201F3E2DCF9C204F3F8C203F3F7C227
:104D000002F3F6C201F3FDC206F3FCC205F3FFC2D3
:104D100008F3FEC207F338D7010E0201FA25FC6F33
:104D2000000EFB21FD6FFF6BFE6B0301005301E1E1
:104D300017D010D000513D080DE1FBC2EAFF02017F
:104D4000FAC2E9FFEF6A010EFA25FE6F000EFB21A1
:104D5000FF6F03010201FA2BD8B4FB2BAFD703017D
:104D6000000112000201F951FB19800BFD6FF9AF30
:104D700005D0F81FF91FF82BD8B4F92BFBAF05D0DD
:104D8000FA1FFB1FFA2BD8B4FB2BF851FA03F3CF11
:104D900001F0F4CF00F0FB03F3500026F951FA03C1
:104DA000F3500020026EFDAF05D0011E021E012A45
:104DB000D8B4022A00014AEF27F00201F66BF46B27
:104DC0000A0EF56FF36BF26BF051F11104E1000E76
:104DD000016E026EDDD0F651F62BF025E96E000E65
:104DE000F121EA6EEFCFF7F2F7512D080CE1010E39
:104DF000F46FF651F62BF025E96E000EF121EA6E04
:104E0000EFCFF7F20CD0F7512B0809E1F651F62B52
:104E1000F025E96E000EF121EA6EEFCFF7F2F751BF
:104E20002F08D8B0A7D0F7513908D8A0A3D0F75190
:104E300030081EE1F651F025E96E000EF121EA6E10
:104E4000EF50780809E0F651F025E96E000EF121E7
:104E5000EA6EEF5058080CE1100EF56FF62BF65184
:104E6000F62BF025E96E000EF121EA6EEFCFF7F296
:104E7000F5510A0822E1F7512F081EE2F7513908CF
:104E80001BE3F96B0A0EF86FF3C2FBF2F2C2FAF2FF
:104E9000000168D7300E0201F75D0124F26F000EA9
:104EA0000220F36FF651F62BF025E96E000EF1218A
:104EB000EA6EEFCFF7F2DFD75DD0F55110085AE177
:104EC000F751600806E2F7517A0803E3F751DF0B68
:104ED00001D0F751F76FF7512F0803E2F751390866
:104EE00006E2F751400846E2F751460843E3F7511E
:104EF0002F0817E2F751390814E3F235F86FF3354C
:104F0000F96FF837F937F837F937F837F937F00E1E
:104F1000F817300EF75DF825F26F000EF921F36FE8
:104F200014D0F235F86FF335F96FF837F937F837F1
:104F3000F937F837F937F00EF817410EF75D0A0F19
:104F4000F825F26F000EF921F36FF651F62BF025DC
:104F5000E96E000EF121EA6EEFCFF7F2F75160082B
:104F600006E2F7517A0803E3F751DF0B01D0F7515E
:104F7000F76FB1D7F5510A0807E1F42D05D0F21FFC
:104F8000F31FF22BD8B4F32BF2C201F0F3C202F0FC
:104F9000000175EF32F00201F151240DF350036A64
:104FA000880F016E000E032201C0F2F203C0F3F27B
:104FB000230EF225E96E000EF321EA6EEFB603D060
:104FC000000E016E0DD00001B0EC08F0230E0201BE
:104FD000F225E96E000EF321EA6EEF96010E016EE6
:104FE0000001120003011151240DF350136B126FD5
:104FF000140E1225016E000E1321036E0150880F4E
:10500000E96E000E0320EA6EECCF13F3ED52EFCF02
:1050100012F3125305E1135303E1000E016E2ED07B
:105020001151240DF350136B126F0F0E1225016EE8
:10503000000E1321036E0150880FE96E000E03204D
:10504000EA6EEF3C08D06F6B0001F7EC12F00150F4
:10505000030114D013D01151240DF350136B126FB0
:10506000230E1227000E1323880E1225E96E000E60
:105070001321EA6E000EEFB2010E016E0001120064
:10508000FEC271F0D2EF2DF003012351240DF35035
:10509000036A880F016E000E032201C024F303C0CF
:1050A00025F30F0E2425E96E000E2521EA6EEF3C54
:1050B00003D0000E016EADD0230E2425016E000E2C
:1050C0002521036E01C0E9FFEA6EEFB203D0000EA6
:1050D000016E9FD0010E2425016E000E2521036E66
:1050E00001C026F3276F0B0E2425E96E000E252143
:1050F000EA6EECCF3AF3ED52EFCF39F30D0E2425E3
:10510000E96E000E2521EA6EECCF3CF3ED52EFCFB5
:105110003BF3160E2425E96E000E2521EA6EEFCF33
:105120003DF3ECCF3EF3ECCF3FF3ECCF40F31A0E60
:105130002425E96E000E2521EA6EEFCF41F3ECCF76
:1051400042F3ECCF43F3ECCF44F30F0E2425E96E8A
:10515000000E2521EA6EEFCF46F3100E2425E96EEE
:10516000000E2521EA6EECCF48F3ED52EFCF47F366
:1051700003C038F301C037F3180E456F000193ECFC
:1051800014F0160E03012425016E000E2521036E76
:1051900001C026F3276FEA6E01C0E9FFEFCF28F3C5
:1051A000ECCF29F3ECCF2AF3ECCF2BF3100E242510
:1051B000E96E000E2521EA6EECCF03F0ED52EFCF41
:1051C00000F003C001F0026A036A28510026295149
:1051D00001222A5102222B51032227C3EAFF26C3B0
:1051E000E9FF00C0EFFF01C0ECFF02C0ECFF03C00D
:1051F000ECFF230E2425E96E000E2521EA6EEF92C6
:10520000230E2425E96E000E2521EA6EEF98010E8B
:10521000016E0001120003011D51240DF350036AB9
:10522000880F016E000E032201C01FF303C020F39C
:10523000140E1F25E96E000E2021EA6EECCF24F338
:10524000ED52EFCF23F3235305E1245303E1000E86
:10525000016E7FD00F0E1F25E96E000E2021EA6E31
:10526000EF3C37D00F0E1F25016E000E2021036E7C
:1052700001C023F3246F6F6B000192EC0AF024C38A
:10528000EAFF23C3E9FF01C0EFFF0F0E03011F2553
:10529000E96E000E2021EA6EEF3C03D0000E016E95
:1052A00058D0100E1F25E96E000E2021EA6EEC6A20
:1052B000ED52EF6A0F0E1F25E96E000E2021EA6EF7
:1052C000EFCF88F38A6B280E896F0001A6EC0AF0F5
:1052D0000301230E1F25E96E000E2021EA6EEF88E0
:1052E0001EC392F30001F5EC0AF0140E03011F2512
:1052F000E96E000E2021EA6EFF0EEF2602E2EE526A
:10530000ED06100E1F25E96E000E2021EA6EECCF8F
:1053100022F3ED52EFCF21F3212BD8B4222B100E24
:105320001F25E96E000E2021EA6E22C3ECFFED522C
:1053300021C3EFFF225102080AE2FF0A03E12151D3
:10534000C90805E21DC323F300019EDE0301010E1F
:10535000016E0001B1EF29F071C01DF31CC31EF3F3
:105360005AD7015012000900F6CFFFF2F7CF00F331
:10537000F5CF1CF3F1DFFFC2F6FF00C3F7FF020118
:10538000FE2F01D002D00001EED7000123EF2EF056
:10539000EACF06F3E9CF05F30201FF39F009030173
:1053A000016F0127E20F026F320F046F0201FF51FC
:1053B0000F0B0301022702270427E90F036F0327BE
:1053C00003270201FE390F0B0301032704270337CC
:1053D0000437041F04370201FE510F0B0301042799
:1053E0000137070E006F0A0E03070427FDE30207CB
:1053F0000327FDE301070227FDE300070127FDE383
:10540000030EEA6EE96A070E0515059DE926000EF2
:10541000EA22E950040804E1EA50030801E1058D9D
:10542000EF50006E08E105BD06D005B915D005B7EF
:1054300002D0200E03D005870599300E0026EACF52
:10544000FFF2E9CFFEF200C01CF3000185DFFFC2CE
:10545000EAFFFEC2E9FF0301EE5005ADDAD7000115
:105460002BEF2EF00900F5520CE0F6CFFEF2F7CF4D
:10547000FFF2F5CF1CF370DFFEC2F6FFFFC2F7FFAD
:10548000F1D71200EF520FE0EACFFFF2E9CFFEF2C0
:10549000EFCF1CF361DFFFC2EAFFFEC2E9FFE92A9A
:1054A000D8B4EA2AEFD786EF2EF00CC311F39ADDB9
:1054B000015204E1000E016E026E72D003010C5124
:1054C000240DF350126B116F0F0E1125016E000E9B
:1054D0001221036E0150880FE96E000E0320EA6E60
:1054E000EF3C03D00E6B0D6B16D00C51240DF35016
:1054F000126B116F100E1125016E000E1221036E3A
:105500000150880FE96E000E0320EA6EECCF0EF317
:10551000ED52EFCF0DF3CA0ED8800D550F6F030E6D
:105520000E55106F0C51240DF350126B116F140EA9
:105530001125016E000E1221036E0150880FE96ED5
:10554000000E0320EA6EECCF03F0ED52EFCF01F036
:105550000350105D1AE303E10F51015C16E20C5198
:10556000240DF350126B116F140E1125016E000EF5
:105570001221036E0150880FE96E000E0320EA6EBF
:10558000ECCF03F0ED52EF5003D010C303F00F51F6
:105590000F6F03C010F30FC301F010C302F000013E
:1055A000120001C3EAFF030100C3E9FFECCF07F3D8
:1055B000ED52EFCF06F307C31EF306C31DF3000140
:1055C00026EC20F002C005F301C004F303010451EE
:1055D000051103E1000E016E3ED071C00CF3000115
:1055E00064DF02C003F301C002F30301025103119F
:1055F00003E1010E016E2FD00351055D07E303E1C6
:105600000451025D03E2010E086F05D005C303F3E8
:1056100004C302F3086B03C303F00251D8B40307B9
:10562000020703100DE007C3EAFF0651062BD8B4AA
:10563000072BE96EEFCF1CF300018EDE0301EBD7E1
:1056400001C3EAFF00C3E9FF07C3ECFFED5206C345
:10565000EFFF08C301F00001120021C301F020C3D5
:1056600000F00066012A0900F5CFEEFF002EFBD7FF
:10567000012EF9D7F86A12000301146B136B1B811A
:105680000FC3EAFF0EC3E9FFECCF16F3ED52EFCFE5
:1056900015F30DC3EAFF0CC3E9FFEFCF17F3ECCF0F
:1056A00018F3ECCF19F3ECCF1AF31AC31FF319C395
:1056B00002F018C301F017C300F0010E1727D8B08D
:1056C000182BD8B4192BD8B41A2B02C01EF301C062
:1056D0001DF300C01CF302C0F8FF01C0F7FF00C0BB
:1056E000F6FF030EEA6E110EE96E216B010E206FBC
:1056F0000001B3DF0301115125083FE11AC31FF375
:1057000019C302F018C301F017C300F0010E1727E8
:10571000D8B0182BD8B4192BD8B41A2B02C01EF34A
:1057200001C01DF300C01CF302C0F8FF01C0F7FF69
:1057300000C0F6FF030EEA6E120EE96E216B010E39
:10574000206F00018ADF03011251250814E1145172
:10575000165D0FE303E11551135D0BE2105305E0F5
:10576000250E1C6F0001F8DD0301132BD8B4142B98
:1057700001D01CD001D01AD018D0115314E014510C
:10578000165D0FE303E11551135D0BE2105305E0C5
:1057900011C31CF30001E0DD0301132BD8B4142B5B
:1057A00001D004D002D01B9101D07FD71BA108D01B
:1057B000FF0E1727D8A01827D8A01927D8A01A2776
:1057C0000FC3EAFF0EC3E9FF14C3ECFFED5213C38E
:1057D000EFFF0DC3EAFF0CC3E9FF17C3EFFF18C3C8
:1057E000ECFF19C3ECFF1AC3ECFF11C301F0000179
:1057F00012000301086B076B71C00CF3000155DE4A
:1058000002C00AF301C009F3030109510A1103E1BF
:10581000010E016E4CD001C3EAFF00C3E9FFEFCFD8
:1058200003F3ECCF04F3ECCF05F3ECCF06F30869F8
:105830000769030E0D6F0C6F0F6F070E0E6F106B65
:1058400000011ADF01C002F303010751081106E14C
:105850000251250803E0000E016E29D00A51085DAF
:105860000BE303E10751095D07E20AC308F309C32B
:1058700007F3010E0B6F0CD00251250803E1020E55
:105880000B6F06D0025303E0010E0B6F01D00B6BC0
:1058900001C30DF300C30CF3030E0F6F070E0E6F61
:1058A000010E106F0001E8DE03010BC301F00001DF
:1058B000D6EF2EF004C3F8FF03C3F7FF02C3F6FFD1
:1058C000030EEA6E060EE96E0301216B010E206FD6
:1058D0000001C3DE030106C301F00001F0EF2EF06A
:1058E0007AC0EAFF79C0E9FF23C3EFFFE92AD8B401
:1058F000EA2AEF6A0001792BD8B47A2B120003014F
:105900001EBF11D00F0E006E1D3900160A0E005C6E
:1059100003E2300E002602D01E51002600C023F301
:105920000001DEDF03010F0E1D170A0E1D5D02E2EE
:10593000300E02D01E9F1E511D271DC323F30001F0
:10594000CFDF7BEF2DF0200E03011EA9300E1F6F5D
:105950001DC300F000AE08D0001E002A00C01DF3D9
:105960002D0E1F6F1E8F1E8101501DC323F3640E69
:10597000246F000159EC08F000C01DF3300E012423
:105980000301206F1DC323F30A0E246F000159EC9D
:1059900008F0300E00240301226F300E0124216F25
:1059A0001FC300F0300E205D04E01E831EBF1E8565
:1059B00012D01FC320F3200E1F6F300E215D04E0B4
:1059C0001E811EBF1E8307D0D8A41E8104E120C300
:1059D00021F3200E206F1EB505D01EB307D01EB1D7
:1059E00009D00CD01FC323F300017ADF20C323F3B7
:1059F000000176DF21C323F3000172DF22C323F30A
:105A000000016EDF96EF2DF01EC324F31DC323F3B8
:105A10000301215302E1225323E020C3EAFF1FC305
:105A2000E9FFEF521DE024C303F02351232BD8B428
:105A3000242B256F03C026F320C3EAFF1F511F2B21
:105A4000D8B4202BE96EEFCF27F303C0EAFF25C3BC
:105A5000E9FF27C3EFFF2151D8B422072107D9D787
:105A6000215302E122530DE024C3EAFF2351232BEB
:105A7000D8B4242BE96EEF6A2151D8B4220721074C
:105A8000EFD71DC301F01EC302F00001BDEF2DF0E2
:105A900003011A6B04C3EAFF03C3E9FFEF6A025173
:105AA000300A000103E0010A31E04BD0000E016E24
:105AB000C250C30B0110C26EA60E006E002EFED7A0
:105AC0000000C282C2B2FED7C4CF1BF3030E7A6FAE
:105AD000060E796F300E0301236F000101DF780E8F
